:020000040800F2
:20000000B0FB00201D04000879040008790400087904000879040008790400080000000053
:200020000000000000000000000000007904000879040008000000007904000879040008AC
:20004000790400087904000879040008790400087904000879040008790400087904000878
:20006000790400087904000879040008790400087904000879040008790400087904000858
:20008000790400087904000879040008790400087904000879040008790400087904000838
:2000A000790400087904000879040008E52C0008212D0008790400087904000879040008B3
:2000C0007904000879040008790400087904000879040008790400087904000879040008F8
:2000E0007904000879040008790400087904000879040008790400087904000879040008D8
:200100007904000879040008790400087904000879040008790400087904000879040008B7
:200120007904000879040008790400084D2D0008790400087904000879040008790400089A
:20014000790400087904000879040008790400087904000879040008790400087904000877
:20016000790400087904000879040008790400087904000879040008790400087904000857
:20018000790400087904000810B5054C237833B9044B13B10448AFF300800123237010BDB3
:2001A0006004002000000000A8330008084B10B51BB108490848AFF300800848036803B9BA
:2001C00010BD074B002BFBD0BDE81040184700BF0000000064040020A83300084C0400201C
:2001E0000000000080B58AB002AF40F21313FB8340F21313BB8332233B824FF4C8737B83E5
:200200004FF496733B830223FB820123BB820223FB810023FB7401237B730121082000F052
:2002200073F944237B6000233B720123FB7200237B723B1D1946764800F0FCF9B7F918106D
:20024000B7F91A300122184601F0FAF8002002F0C9FD4FF4467002F0C5FD3B8B013B9BB26C
:200260003B83B7F91830002B03DCBB8A5B429BB2BB823B8B01339BB23B83B7F91830103312
:20028000B3F5167F03DBBB8A5B429BB2BB827B8B013B9BB27B83B7F91A30022B15DCB7F982
:2002A0001820B7F91C309A420DDDB7F9183003F11002B7F91C3032339A4204DAFB8A5B4209
:2002C0009BB2FB8201E00223FB747B8B01339BB27B83B7F91A30103340F21D32934215DDD5
:2002E000B7F91820B7F91E309A420DDDB7F9183003F11002B7F91E3032339A4204DAFB8AB2
:200300005B429BB2FB8201E00123FB747A8BFB8A13449BB27B833A8BBB8A13449BB23B836A
:20032000B7F91810B7F91A300022184601F088F8BA8B3B8A13449BB21BB2B7F91C10002281
:200340000192009302230A460221002000F04EFFFA8B3B8A13449BB21BB2B7F91E100022C7
:200360000192009340F21E330A4640F21E31002000F03CFF072000F083F87B7B002B38D0FD
:20038000B7F91820B7F91E3019339A4205DDFA8BFB8913449BB2FB830BE0B7F91820B7F9BF
:2003A0001E3019339A4204DAFA8BFB89D31A9BB2FB83B7F91820B7F91C3019339A4205DD3A
:2003C000BA8BFB8913449BB2BB8312E0B7F91820B7F91C3019339A420BDABA8BFB89D31AD9
:2003E0009BB2BB8305E000230A4A2821B42000F0D9FFFB7C012BF6D005E00023064A282127
:20040000B42000F0CFFFFB7C022BF6D016E700BF000C0240283000083430000880B582B0A3
:2004200000AF104B7B60104B3B6007E03B681A1D3A607A68111D796012681A603B680B4AB1
:200440009342F3D30A480B494FF000028842B8BF40F8042BFADB00F049F800BF0837BD466B
:2004600080BD00BFA8330008000000205004002060040020B0F3002080B400AFFEE700BF3B
:20048000B0B483B000AF7860002507E0002400E0013444F61F639C42FADD01352A467B68FF
:2004A0009A42F3D300BF0C37BD46B0BC704700BF80B500AF0121094800F026F8012101200B
:2004C00000F040F8012141F2011000F059F80121082000F019F800BF80BD00BF0300400004
:2004E00080B400AF00BFBD4680BC704780B500AF00F076F9FFF7DCFFFFF7F2FF02F0D2FCA9
:20050000FFF770FEFEE700BF80B483B000AF78600B46FB70FB78002B06D00949084B1A6B8B
:200520007B6813430B6306E00549054B1A6B7B68DB4313400B6300BF0C37BD4680BC704751
:200540000038024080B483B000AF78600B46FB70FB78002B06D00949084B1A6C7B6813439F
:200560000B6406E00549054B1A6C7B68DB4313400B6400BF0C37BD4680BC704700380240CD
:2005800080B483B000AF78600B46FB70FB78002B06D00949084B5A6C7B6813434B6406E004
:2005A0000549054B5A6C7B68DB4313404B6400BF0C37BD4680BC70470038024080B483B0FB
:2005C00000AF78600B46FB70FB78002B06D00949084B1A6A7B6813430B6206E00549054B11
:2005E0001A6A7B68DB4313400B6200BF0C37BD4680BC70470038024080B483B000AF786056
:200600000B46FB70FB78002B06D00949084B5A6A7B6813434B6206E00549054B5A6A7B6830
:20062000DB4313404B6200BF0C37BD4680BC70470038024080B487B000AF7860396000237C
:200640007B6100233B610023FB6000237B6176E001227B6902FA03F33B613B681A683B69CE
:200660001340FB60FA683B699A4265D17B681A687B695B00032101FA03F3DB431A407B68A0
:200680001A607B681A683B681B7919467B695B0001FA03F31A437B681A603B681B79012B98
:2006A00003D03B681B79022B2ED17B689A687B695B00032101FA03F3DB431A407B689A6076
:2006C0007B689A683B685B7919467B695B0001FA03F31A437B689A607B685A687B699BB21F
:2006E000012101FA03F3DB431A407B685A607B685A683B689B7919467B699BB201FA03F3F5
:200700009BB21A437B685A607B68DA687B699BB25B00032101FA03F3DB431A407B68DA6037
:200720007B68DA683B68DB7919467B695B0001FA03F31A437B68DA607B6901337B617B69BC
:200740000F2B85D900BF1C37BD4680BC704700BF80B485B000AF78600B467B8013467B70BA
:200760000023FB600023BB607A787B8803F007039B0002FA03F3FB607B88DB089BB2184652
:200780007B88DB089BB21A467B68083253F822207B8803F007039B000F2101FA03F3DB4342
:2007A00002EA03017B6800F1080243F822107B88DB089BB21A467B68083253F82220FB685E
:2007C0001343BB607B88DB089BB21A467B680832B96843F8221000BF1437BD4680BC70476A
:2007E00080B500AF124A124B1B6843F0010313600F4B00229A600E4A0D4B1B6823F084737C
:2008000023F4803313600A4B0A4A5A60084A084B1B6823F480231360054B0022DA6000F047
:200820000DF8054B4FF000629A6000BF80BD00BF003802401030002400ED00E080B483B0FB
:2008400000AF00237B6000233B60354A344B1B6843F480331360324B1B6803F400333B608A
:200860007B6801337B603B68002B03D17B68B3F5A06FF0D12A4B1B6803F40033002B02D06A
:2008800001233B6001E000233B603B68012B42D1234A234B1B6C43F080531364214A214B62
:2008A0001B6843F4804313601D4A1D4B9B6893601B4A1B4B9B6843F400439360184A184B83
:2008C0009B6843F4A0539360154B174A5A60144A134B1B6843F08073136000BF104B1B6808
:2008E00003F00073002BF9D0104B40F205621A600B4A0B4B9B6823F003039360084A084BD1
:200900009B6843F00203936000BF054B9B6803F00C03082BF9D100BF0C37BD4680BC7047A0
:20092000003802400070004008484007003C024080B483B000AF78607B681B6823F001020E
:200940007B681A607B6800221A607B6800225A607B6800229A607B680022DA607B680022B9
:200960001A617B6821225A617B68454A934203D1444B3D229A607EE07B68434A934204D1A0
:20098000404B4FF474629A6075E07B683F4A934204D13C4B4FF474129A606CE07B683C4A4F
:2009A000934204D1374B4FF074629A6063E07B68384A934203D1334B374ADA605BE07B6854
:2009C000364A934203D12F4B354ADA6053E07B68344A934203D12B4B334ADA604BE07B6843
:2009E000324A934204D1274B4FF03D52DA6042E07B682F4A934203D12E4B3D229A603AE044
:200A00007B682D4A934204D12A4B4FF474629A6031E07B68294A934204D1264B4FF47412FF
:200A20009A6028E07B68264A934204D1214B4FF074629A601FE07B68224A934203D11D4BDD
:200A4000154ADA6017E07B681F4A934203D1194B134ADA600FE07B681C4A934203D1154BD5
:200A6000114ADA6007E07B68194A934203D1114B4FF03D52DA6000BF0C37BD4680BC7047AF
:200A80001060024000600240286002404060024058600240706002403D00002088600240C3
:200AA000400F0020A060024000003D20B860024010640240006402402864024040640240BE
:200AC000586402407064024088640240A0640240B864024080B485B000AF78603960002384
:200AE000FB607B681B68FB60FA68244B1340FB603B681A683B68DB681A433B685B691A432F
:200B00003B689B691A433B68DB691A433B681B6A1A433B685B6A1A433B689B6A1A433B689B
:200B20005B6B1A433B689B6B1343FA681343FB607B68FA681A607B685B69FB60FB6823F049
:200B40000703FB603B68DA6A3B681B6B1343FA681343FB607B68FA685A613B681A697B68AE
:200B60005A603B685A687B689A603B689A687B68DA6000BF1437BD4680BC70473F801CF0EC
:200B800080B483B000AF78607B6800221A607B6800225A607B6800229A607B680022DA60EB
:200BA0007B6800221A617B6800225A617B6800229A617B680022DA617B6800221A627B6851
:200BC00000225A627B6800229A627B680022DA627B6800221A637B6800225A637B680022AC
:200BE0009A6300BF0C37BD4680BC704780B485B000AFF860B9601346FB71BB6803F0800319
:200C0000002B0FD0FB79002B06D0FB685B6943F08002FB685A6105E0FB685B6923F08002BA
:200C2000FB685A61BB68802B14D0FB79002B08D0FB681A68BB6803F01E031A43FB681A6017
:200C400008E0FB681A68BB6803F01E03DB431A40FB681A6000BF1437BD4680BC704700BF7C
:200C600080B582B000AF78607B68174A93420AD101214FF48050FFF7BFFC00214FF4805078
:200C8000FFF7BAFC1CE07B68104A93420AD101214FF48040FFF792FC00214FF48040FFF7FC
:200CA0008DFC0DE07B680A4A934209D101214FF40040FFF783FC00214FF40040FFF77EFCAA
:200CC00000BF0837BD4680BD0030014000380040003C004080B485B000AF786039600023C5
:200CE000FB817B681B88FB81FB8903F44153FB813B681A883B685B8813439AB23B689B88B8
:200D000013439AB23B68DB8813439AB23B681B8913439AB23B685B8913439AB23B689B89B0
:200D200013439AB23B68DB8913439AB2FB891343FB817B68FA891A807B689B8B9BB223F4A5
:200D400000639AB27B689A833B681A8A7B681A8200BF1437BD4680BC704700BF80B483B0F8
:200D600000AF78607B6800221A807B6800225A807B6800229A807B680022DA807B680022EB
:200D80001A817B6800225A817B6800229A817B680022DA817B6807221A8200BF0C37BD46AB
:200DA00080BC704780B483B000AF78600B46FB70FB78002B08D07B681B889BB243F04003D7
:200DC0009AB27B681A8007E07B681B889BB223F040039AB27B681A8000BF0C37BD4680BC30
:200DE000704700BF80B483B000AF78600B46FB70FB78002B08D07B681B889BB243F4005300
:200E00009AB27B681A8007E07B681B889BB223F400539AB27B681A8000BF0C37BD4680BCDB
:200E2000704700BF80B483B000AF78600B467B8013467B707B78002B08D07B689B889AB276
:200E40007B8813439AB27B689A8009E07B689B889AB27B88DB439BB213409AB27B689A80AB
:200E600000BF0C37BD4680BC704700BF80B485B000AF78600023FB6005E0FB680133FB6076
:200E80007B6801337B607B681B78002BF5D1FB689BB218461437BD4680BC704780B493B033
:200EA00000AFF860084611461A4603467B810B463B811346FB80FB68002B0FD0FB68B3F984
:200EC00000309AB27B8913449BB27B81FB68B3F902309AB23B8913449BB23B81B7F906305B
:200EE000DB08FB63FB6BDA00B7F906309A4202D2FB6B0133FB63B7F90A30DB087B62B7F989
:200F00000A207B6ADB00D31A3B62FB68002B11D1B7F90A20B7F906301344B3F5487F05DB87
:200F20007B89C3F54873A7F840301CE0FB88A7F8403018E0B7F90A20B7F906301A44B7F9D7
:200F40000A30F968B1F904100B449A4208DBFB68B3F904309AB27B89D31AA7F8403002E0B9
:200F6000FB88A7F840300023A7F84630B7E0B7F84620B7F908301344B3F5167F80F2B780D6
:200F8000B7F90A30DA08B7F90810B7F846300B441946662303FB01F31344FB61564BBB61FF
:200FA000BA69FB691344BB613A6A13469B079B1A9B001A46BB6903F188735B0113441C33D3
:200FC0007B63BB6903F188735B011C333B63B7F84630FA6B02FB03F37A6D1344BB62FB887C
:200FE000A7F844300023A7F842300023A7F844306AE07B6BDBB223F01F03FB75B7F84230F1
:201000005A1CA7F84220002B06D1BB6A1B7887F83B30BB6A0133BB62B7F8423003F0070321
:20102000A7F8423097F93B30002B02DA0123FB6201E00023FB62B7F85830032B2AD801A2B1
:2010400052F823F0551000085F1000087110000883100008FB6ADAB27B6B1A701AE07B6BEA
:201060001A78FB6ADBB25340DAB27B6B1A7011E07B6B1A78FB6ADBB21340DAB27B6B1A70B3
:2010800008E07B6B1A78FB6ADBB21343DAB27B6B1A7000BF7B6B043B7B637B6B03F0E0032E
:2010A0003B61FA7D3B699A4204D03B6B20337B637B6B3B6397F83B305B0087F83B30B7F880
:2010C00044300133A7F84430B7F84420B7F840309A428ED3B7F846300133A7F84630B7F8C9
:2010E0004620B7F950309A42FFF641AF00E000BF4C37BD4680BC7047A0040020B0B487B022
:2011000000AFF860084611461A4603467B810B463B811346FB807B89B3F5487F5ED23B8936
:20112000B3F5167F5AD27B89DB08FB82FB8ADB009BB27A89D31ABB82BB8A802242FA03F3EF
:20114000FB74FB88012B1AD0022B2FD0002B46D13A89FB8A3889F98A234C662505FB00F0A3
:20116000204401440878F97C0143CCB21E49662000FB02F20A44134422461A702FE03A89CA
:20118000FB8A3889F98A184C662505FB00F0204401440878F97C4140CCB21349662000FB2D
:2011A00002F20A44134422461A7018E03A89FB8A3889F98A0C4C662505FB00F020440144A4
:2011C0000878F97C0140CCB20749662000FB02F20A44134422461A7000BF00E000BF1C374E
:2011E000BD46B0BC704700BFA004002080B58AB000AFF860084611461A4603467B810B4635
:201200003B811346FB80FA887B89D31A9BB2FB843A8E3B89D31A9BB2BB84B7F92630002BC9
:2012200003DAFB8C5B429BB2FB84B7F92430002B03DABB8C5B429BB2BB840123FB83B7F913
:201240000620B7F90A309A4202DA4FF6FF73FB830123BB83B7F93020B7F908309A4202DA8F
:201260004FF6FF73BB837B897B833B893B83B7F92620B7F924309A4248DD798B3A8BBB8EE8
:20128000F868FFF73BFFBB8C5B009AB2FB8CD31A9BB23B84B7F92420B7F92630D31A9BB21C
:2012A0005B009BB2FB82BB8C5B009BB2BB8200237B8424E0B7F92030002B0ADB3A8BBB8B9C
:2012C00013449BB23B833A8CFB8A13449BB23B8404E03A8CBB8A13449BB23B847A8BFB8B21
:2012E00013449BB27B83798B3A8BBB8EF868FFF705FFB7F922309BB201339BB27B84B7F961
:201300002220B7F926309A42D4DB47E0798B3A8BBB8EF868FFF7F2FEFB8C5B009AB2BB8C06
:20132000D31A9BB23B84B7F92620B7F92430D31A9BB25B009BB2FB82FB8C5B009BB2BB82EF
:2013400000237B8424E0B7F92030002B0ADB7A8BFB8B13449BB27B833A8CFB8A13449BB23B
:201360003B8404E03A8CBB8A13449BB23B843A8BBB8B13449BB23B83798B3A8BBB8EF8687D
:20138000FFF7BCFEB7F922309BB201339BB27B84B7F92220B7F924309A42D4DB00BF28372F
:2013A000BD4680BD80B58CB004AFBA601A460346FB810B46BB811346FB80B868FFF756FDC0
:2013C00003467B83FB89BB830023FB832CE0BB685A1CBA601B787B767B7E1F2B21D97B7EEA
:2013E0009BB21A46D20013449BB2A3F59073FB82FB8A124A13443B61B7F91C10B7F90C2026
:20140000FB8802933B6901930923009306230020FFF744FDBB8B0633BB83BB8BB3F5487FCB
:2014200007D2FB8B0133FB83FA8B7B8B9A42CED300E000BF2037BD4680BD00BF4030000826
:2014400080B582B000AF0346FB800B46BB8013467B80FB88073399B2BA887B880020FFF76F
:201460004DFEFB88083399B2BA887B880020FFF745FEFB88053399B2BB8801339AB27B88AE
:201480000020FFF73BFEFB88063399B2BB8801339AB27B880020FFF731FEFB88073399B2E3
:2014A000BB8801339AB27B880020FFF727FEFB88083399B2BB8801339AB27B880020FFF746
:2014C0001DFEFB88093399B2BB8801339AB27B880020FFF713FEFB880A3399B2BB88013378
:2014E0009AB27B880020FFF709FEFB88033399B2BB8802339AB27B880020FFF7FFFDFB8820
:20150000043399B2BB8802339AB27B880020FFF7F5FDFB88053399B2BB8802339AB27B88AD
:201520000020FFF7EBFDFB88063399B2BB8802339AB27B880020FFF7E1FDFB88073399B2E3
:20154000BB8802339AB27B880020FFF7D7FDFB88083399B2BB8802339AB27B880020FFF7F4
:20156000CDFDFB88093399B2BB8802339AB27B880020FFF7C3FDFB880A3399B2BB88023377
:201580009AB27B880020FFF7B9FDFB880B3399B2BB8802339AB27B880020FFF7AFFDFB8818
:2015A0000C3399B2BB8802339AB27B880020FFF7A5FDFB88023399B2BB8803339AB27B8857
:2015C0000020FFF79BFDFB88033399B2BB8803339AB27B880020FFF791FDFB88043399B2E8
:2015E000BB8803339AB27B880020FFF787FDFB88053399B2BB8803339AB27B880020FFF7A5
:201600007DFDFB88063399B2BB8803339AB27B880020FFF773FDFB88073399B2BB8803337A
:201620009AB27B880020FFF769FDFB88083399B2BB8803339AB27B880020FFF75FFDFB8819
:20164000093399B2BB8803339AB27B880020FFF755FDFB880A3399B2BB8803339AB27B8800
:201660000020FFF74BFDFB880B3399B2BB8803339AB27B880020FFF741FDFB880C3399B2D7
:20168000BB8803339AB27B880020FFF737FDFB880D3399B2BB8803339AB27B880020FFF74C
:2016A0002DFDFB88023399B2BB8804339AB27B880020FFF723FDFB88033399B2BB88043380
:2016C0009AB27B880020FFF719FDFB88043399B2BB8804339AB27B880020FFF70FFDFB881C
:2016E000053399B2BB8804339AB27B880020FFF705FDFB88063399B2BB8804339AB27B88B6
:201700000020FFF7FBFCFB88073399B2BB8804339AB27B880020FFF7F1FCFB88083399B2DF
:20172000BB8804339AB27B880020FFF7E7FCFB88093399B2BB8804339AB27B880020FFF7FE
:20174000DDFCFB880A3399B2BB8804339AB27B880020FFF7D3FCFB880B3399B2BB88043371
:201760009AB27B880020FFF7C9FCFB880C3399B2BB8804339AB27B880020FFF7BFFCFB8815
:201780000D3399B2BB8804339AB27B880020FFF7B5FCFB88013399B2BB8805339AB27B8862
:2017A0000020FFF7ABFCFB88023399B2BB8805339AB27B880020FFF7A1FCFB88033399B2E8
:2017C000BB8805339AB27B880020FFF797FCFB88043399B2BB8805339AB27B880020FFF7B1
:2017E0008DFCFB88053399B2BB8805339AB27B880020FFF783FCFB88063399B2BB88053379
:201800009AB27B880020FFF779FCFB88073399B2BB8805339AB27B880020FFF76FFCFB8818
:20182000083399B2BB8805339AB27B880020FFF765FCFB88093399B2BB8805339AB27B880D
:201840000020FFF75BFCFB880A3399B2BB8805339AB27B880020FFF751FCFB880B3399B2D7
:20186000BB8805339AB27B880020FFF747FCFB880C3399B2BB8805339AB27B880020FFF758
:201880003DFCFB880D3399B2BB8805339AB27B880020FFF733FCFB880E3399B2BB88053368
:2018A0009AB27B880020FFF729FCFB88013399B2BB8806339AB27B880020FFF71FFCFB881D
:2018C000023399B2BB8806339AB27B880020FFF715FCFB88033399B2BB8806339AB27B88C7
:2018E0000020FFF70BFCFB88043399B2BB8806339AB27B880020FFF701FCFB88053399B2E2
:20190000BB8806339AB27B880020FFF7F7FBFB88063399B2BB8806339AB27B880020FFF70C
:20192000EDFBFB88073399B2BB8806339AB27B880020FFF7E3FBFB88083399B2BB88063373
:201940009AB27B880020FFF7D9FBFB88093399B2BB8806339AB27B880020FFF7CFFBFB8816
:201960000A3399B2BB8806339AB27B880020FFF7C5FBFB880B3399B2BB8806339AB27B8867
:201980000020FFF7BBFBFB880C3399B2BB8806339AB27B880020FFF7B1FBFB880D3399B2D3
:2019A000BB8806339AB27B880020FFF7A7FBFB880E3399B2BB8806339AB27B880020FFF7B4
:2019C0009DFBF988BB8807339AB27B880020FFF795FBFB88013399B2BB8807339AB27B88AE
:2019E0000020FFF78BFBFB88023399B2BB8807339AB27B880020FFF781FBFB88033399B2E6
:201A0000BB8807339AB27B880020FFF777FBFB88043399B2BB8807339AB27B880020FFF78B
:201A20006DFBFB88053399B2BB8807339AB27B880020FFF763FBFB88063399B2BB88073374
:201A40009AB27B880020FFF759FBFB88073399B2BB8807339AB27B880020FFF74FFBFB8816
:201A6000083399B2BB8807339AB27B880020FFF745FBFB88093399B2BB8807339AB27B88E8
:201A80000020FFF73BFBFB880A3399B2BB8807339AB27B880020FFF731FBFB880B3399B2D5
:201AA000BB8807339AB27B880020FFF727FBFB880C3399B2BB8807339AB27B880020FFF733
:201AC0001DFBFB880D3399B2BB8807339AB27B880020FFF713FBFB880E3399B2BB88073364
:201AE0009AB27B880020FFF709FBFB880F3399B2BB8807339AB27B880020FFF7FFFAF98811
:201B0000BB8808339AB27B880020FFF7F7FAFB88013399B2BB8808339AB27B880020FFF70C
:201B2000EDFAFB88023399B2BB8808339AB27B880020FFF7E3FAFB88033399B2BB88083379
:201B40009AB27B880020FFF7D9FAFB88043399B2BB8808339AB27B880020FFF7CFFAFB8819
:201B6000053399B2BB8808339AB27B880020FFF7C5FAFB88063399B2BB8808339AB27B886C
:201B80000020FFF7BBFAFB88073399B2BB8808339AB27B880020FFF7B1FAFB88083399B2DB
:201BA000BB8808339AB27B880020FFF7A7FAFB88093399B2BB8808339AB27B880020FFF7B4
:201BC0009DFAFB880A3399B2BB8808339AB27B880020FFF793FAFB880B3399B2BB88083369
:201BE0009AB27B880020FFF789FAFB880C3399B2BB8808339AB27B880020FFF77FFAFB8811
:201C00000D3399B2BB8808339AB27B880020FFF775FAFB880E3399B2BB8808339AB27B880B
:201C20000020FFF76BFAFB880F3399B2BB8808339AB27B880020FFF761FAFB88013399B2D9
:201C4000BB8809339AB27B880020FFF757FAFB88023399B2BB8809339AB27B880020FFF768
:201C60004DFAFB88033399B2BB8809339AB27B880020FFF743FAFB88043399B2BB88093374
:201C80009AB27B880020FFF739FAFB88053399B2BB8809339AB27B880020FFF72FFAFB8816
:201CA000063399B2BB8809339AB27B880020FFF725FAFB88073399B2BB8809339AB27B88C7
:201CC0000020FFF71BFAFB88083399B2BB8809339AB27B880020FFF711FAFB88093399B2D7
:201CE000BB8809339AB27B880020FFF707FAFB880A3399B2BB8809339AB27B880020FFF710
:201D0000FDF9FB880B3399B2BB8809339AB27B880020FFF7F3F9FB880C3399B2BB88093365
:201D20009AB27B880020FFF7E9F9FB880D3399B2BB8809339AB27B880020FFF7DFF9FB880F
:201D40000E3399B2BB8809339AB27B880020FFF7D5F9FB88013399B2BB880A339AB27B8874
:201D60000020FFF7CBF9FB88023399B2BB880A339AB27B880020FFF7C1F9FB88033399B2E3
:201D8000BB880A339AB27B880020FFF7B7F9FB88043399B2BB880A339AB27B880020FFF7C4
:201DA000ADF9FB88053399B2BB880A339AB27B880020FFF7A3F9FB88063399B2BB880A336F
:201DC0009AB27B880020FFF799F9FB88073399B2BB880A339AB27B880020FFF78FF9FB8814
:201DE000083399B2BB880A339AB27B880020FFF785F9FB88093399B2BB880A339AB27B8821
:201E00000020FFF77BF9FB880A3399B2BB880A339AB27B880020FFF771F9FB880B3399B2D2
:201E2000BB880A339AB27B880020FFF767F9FB880C3399B2BB880A339AB27B880020FFF76B
:201E40005DF9FB880D3399B2BB880A339AB27B880020FFF753F9FB880E3399B2BB880A335E
:201E60009AB27B880020FFF749F9FB88023399B2BB880B339AB27B880020FFF73FF9FB8817
:201E8000033399B2BB880B339AB27B880020FFF735F9FB88043399B2BB880B339AB27B88D8
:201EA0000020FFF72BF9FB88053399B2BB880B339AB27B880020FFF721F9FB88063399B2DB
:201EC000BB880B339AB27B880020FFF717F9FB88073399B2BB880B339AB27B880020FFF71E
:201EE0000DF9FB88083399B2BB880B339AB27B880020FFF703F9FB88093399B2BB880B3366
:201F00009AB27B880020FFF7F9F8FB880A3399B2BB880B339AB27B880020FFF7EFF8FB8810
:201F20000B3399B2BB880B339AB27B880020FFF7E5F8FB880C3399B2BB880B339AB27B8878
:201F40000020FFF7DBF8FB880D3399B2BB880B339AB27B880020FFF7D1F8FB88023399B2D8
:201F6000BB880C339AB27B880020FFF7C7F8FB88033399B2BB880C339AB27B880020FFF7D0
:201F8000BDF8FB88043399B2BB880C339AB27B880020FFF7B3F8FB88053399B2BB880C336D
:201FA0009AB27B880020FFF7A9F8FB88063399B2BB880C339AB27B880020FFF79FF8FB8813
:201FC000073399B2BB880C339AB27B880020FFF795F8FB88083399B2BB880C339AB27B882E
:201FE0000020FFF78BF8FB88093399B2BB880C339AB27B880020FFF781F8FB880A3399B2D3
:020000040800F2
:20200000BB880C339AB27B880020FFF777F8FB880B3399B2BB880C339AB27B880020FFF777
:202020006DF8FB880C3399B2BB880C339AB27B880020FFF763F8FB880D3399B2BB880C335C
:202040009AB27B880020FFF759F8FB88033399B2BB880D339AB27B880020FFF74FF8FB8814
:20206000043399B2BB880D339AB27B880020FFF745F8FB88053399B2BB880D339AB27B88E1
:202080000020FFF73BF8FB88063399B2BB880D339AB27B880020FFF731F8FB88073399B2D7
:2020A000BB880D339AB27B880020FFF727F8FB88083399B2BB880D339AB27B880020FFF728
:2020C0001DF8FB88093399B2BB880D339AB27B880020FFF713F8FB880A3399B2BB880D3360
:2020E0009AB27B880020FFF709F8FB880B3399B2BB880D339AB27B880020FEF7FFFFFB8806
:202100000C3399B2BB880D339AB27B880020FEF7F5FFFB88053399B2BB880E339AB27B8881
:202120000020FEF7EBFFFB88063399B2BB880E339AB27B880020FEF7E1FFFB88073399B2C9
:20214000BB880E339AB27B880020FEF7D7FFFB88083399B2BB880E339AB27B880020FEF7D0
:20216000CDFFFB88093399B2BB880E339AB27B880020FEF7C3FFFB880A3399B2BB880E3350
:202180009AB27B880020FEF7B9FFFB88073399B2BB880F339AB27B880020FEF7AFFFFB8801
:2021A000083399B2BB880F339AB27B880020FEF7A5FF00BF0837BD4680BD00BF80B485B0A6
:2021C00000AF78600023FB730023BB730F237B737B68DB78002B38D0264BDB68DB4303F444
:2021E000E0631B0AFB73FB7BC3F10403BB737A7BFB7B42FA03F37B737B685B781A46BB7BD3
:2022000002FA03F3FB737B689A787B7B1340DAB2FB7B1343FB73FB7B1B01FB73164A7B6817
:202220001B781344FA7B83F80023134A7B681B785B09DBB218467B681B7803F01F030121D2
:2022400001FA03F342F820300FE00B497B681B785B09DBB218467B681B7803F01F0301224D
:202260009A4000F1200341F8232000BF1437BD4680BC704700ED00E000E100E080B485B0FD
:2022800000AF786039600023FB817B681B88FB817B68284A934213D07B68274A93420FD068
:2022A0007B68B3F1804F0BD07B68244A934207D07B68234A934203D07B68224A934208D1FB
:2022C000FB8923F07003FB813B685A88FB891343FB817B681C4A93420CD07B681B4A934286
:2022E00008D0FB8923F44073FB813B681A89FB891343FB817B68FA891A803B685A687B6858
:20230000DA623B681A887B681A857B68094A934203D07B68084A934204D13B689B7A9AB2F9
:202320007B681A867B6801229A8200BF1437BD4680BC70470000014000040140000400402E
:2023400000080040000C0040001000400014004080B483B000AF78600B46FB70FB78002BFD
:2023600008D07B681B889BB243F080039AB27B681A8007E07B681B889BB223F080039AB297
:202380007B681A8000BF0C37BD4680BC704700BF80B483B000AF78600B46FB70FB78002BC1
:2023A00008D07B681B889BB243F001039AB27B681A8007E07B681B889BB223F001039AB255
:2023C0007B681A8000BF0C37BD4680BC704700BF80B485B000AF7860396000237B810023FE
:2023E000FB810023BB817B681B8C9BB223F001039AB27B681A847B681B8CFB817B689B883B
:20240000BB817B681B8B7B817B8923F070037B817B8923F003037B813B681A887B891343BD
:202420007B81FB8923F00203FB813B689A89FB891343FB813B685A88FB891343FB817B68AE
:202440001E4A934203D07B681D4A934223D1FB8923F00803FB813B68DA89FB891343FB81DF
:20246000FB8923F00403FB813B689A88FB891343FB81BB8923F48073BB81BB8923F40073CF
:20248000BB813B681A8ABB891343BB813B685A8ABB891343BB817B68BA899A807B687A8960
:2024A0001A833B689A687B685A637B68FA891A8400BF1437BD4680BC704700BF0000014036
:2024C0000004014080B485B000AF7860396000237B810023FB810023BB817B681B8C9BB23A
:2024E00023F010039AB27B681A847B681B8CFB817B689B88BB817B681B8B7B817B8923F401
:20250000E0437B817B8923F440737B813B681B881B029AB27B8913437B81FB8923F0200313
:20252000FB813B689B891B019AB2FB891343FB813B685B881B019AB2FB891343FB817B6873
:20254000224A934203D07B68214A93422BD1FB8923F08003FB813B68DB891B019AB2FB89BF
:202560001343FB81FB8923F04003FB813B689B881B019AB2FB891343FB81BB8923F4806371
:20258000BB81BB8923F40063BB813B681B8A9B009AB2BB891343BB813B685B8A9B009AB291
:2025A000BB891343BB817B68BA899A807B687A891A833B689A687B689A637B68FA891A84F9
:2025C00000BF1437BD4680BC704700BF000001400004014080B485B000AF7860396000230A
:2025E0007B810023FB810023BB817B681B8C9BB223F480739AB27B681A847B681B8CFB812D
:202600007B689B88BB817B689B8B7B817B8923F070037B817B8923F003037B813B681A888F
:202620007B8913437B81FB8923F40073FB813B689B891B029AB2FB891343FB813B685B88AE
:202640001B029AB2FB891343FB817B68224A934203D07B68214A93422BD1FB8923F40063A7
:20266000FB813B68DB891B029AB2FB891343FB81FB8923F48063FB813B689B881B029AB2EF
:20268000FB891343FB81BB8923F48053BB81BB8923F40053BB813B681B8A1B019AB2BB899C
:2026A0001343BB813B685B8A1B019AB2BB891343BB817B68BA899A807B687A899A833B68DC
:2026C0009A687B68DA637B68FA891A8400BF1437BD4680BC704700BF00000140000401408F
:2026E00080B483B000AF78607B6800221A807B6800225A807B6800229A807B6800229A6050
:202700007B6800229A817B680022DA817B6800221A827B6800225A8200BF0C37BD4680BC76
:20272000704700BF80B485B000AF78600B467B800023FB817B681B8BFB81FB8923F00803A1
:20274000FB81FA897B881343FB817B68FA891A8300BF1437BD4680BC704700BF80B485B07A
:2027600000AF78600B467B800023FB817B681B8BFB81FB8923F40063FB817B881B029AB2FC
:20278000FB891343FB817B68FA891A8300BF1437BD4680BC704700BF80B483B000AF786033
:2027A0000B46FB70FB78002B0CD07B68B3F844309BB26FEA43436FEA53439AB27B68A3F8FC
:2027C000442009E07B68B3F844309BB2C3F30E039AB27B68A3F8442000BF0C37BD4680BC27
:2027E000704700BF80B483B000AF78600B467B8013467B707B78002B08D07B689B899AB29C
:202800007B8813439AB27B689A8109E07B689B899AB27B88DB439BB213409AB27B689A81CE
:2028200000BF0C37BD4680BC704700BF80B485B000AF78600B467B800023FB817B681B897F
:20284000FB81FB8923F07003FB81FA897B881343FB817B68FA891A8100BF1437BD4680BCD4
:20286000704700BF80B483B000AF78600B467B807B689B889BB223F070039AB27B689A8086
:202880007B689B889AB27B8813439AB27B689A8000BF0C37BD4680BC704700BF80B483B026
:2028A00000AF78600B467B807B681B899BB223F007039AB27B681A817B681B899AB27B88B4
:2028C00013439AB27B681A8100BF0C37BD4680BC704700BF80B483B000AF78600B467B80E7
:2028E0007B681B899BB223F080039AB27B681A817B681B899AB27B8813439AB27B681A81AE
:2029000000BF0C37BD4680BC704700BF80B58EB000AF07F1140300221A605A609A603B46FE
:2029200000221A605A609A60DA601A6100237B6300237B8600233B860023FB854FF48173AF
:202940007B62022387F82830022387F82930002387F82A30012387F82B3007F12403194629
:202960007F48FDF767FE012208217D48FDF7F0FE012201217A48FDF7EBFE7A4B1B687A4A54
:20298000A2FB0323DB0B7B63764B1B68774AA2FB03235B0C7B86734B1B685B09744AA2FB80
:2029A0000323DB093B8607F1140319467148FFF765FC0023BB820023FB827B6BBB610023A9
:2029C000BB830023BB7707F1140319466948FFF755FC3B461846FFF783FE70233B807B8E51
:2029E000BB6001237B800123BB800223BB810223FB8100233B8200237B823B4619465D48B7
:202A0000FFF7E6FC70233B803B8EBB603B4619465848FFF757FD08215648FFF783FE08217B
:202A20005448FFF79BFE01215248FFF791FC01215048FFF7B1FE80214E48FFF74BFF202115
:202A40004C48FFF70FFF05214FF08040FFF726FF00214FF08040FFF7E9FE40F271237B63FD
:202A600002233B861823FB8507F1140319464FF08040FFF703FC0023BB820023FB827B6B6D
:202A8000BB610023BB830023BB7707F1140319464FF08040FFF7F2FB3B461846FFF720FE21
:202AA00070233B8001237B800423BB803B8EBB600223BB810823FB8100233B8200237B825B
:202AC0003B4619464FF08040FFF7FCFC20233B80FB8DBB603B4619464FF08040FFF77AFD3C
:202AE00001214FF08040FFF757FE1C2387F82030012387F82130002387F82230012387F8D1
:202B0000233007F120031846FFF758FB012208214FF08040FFF766FE1B2387F820300123CA
:202B200087F82130002387F82230012387F8233007F120031846FFF741FB012204210D4893
:202B4000FFF750FE01214FF08040FFF721FC01210848FFF71DFC00BF3837BD4680BD00BF4F
:202B60000000024000000020E9699CEE83DE1B43DF4ED3050000014080B598B000AF2023A3
:202B80007B6002233B7202237B720023BB723B1D19464F48FDF74EFD052205214C48FDF7C4
:202BA000D7FD4C48FEF75CF800214A48FEF7FAF84948FDF7BDFE07F10C031846FDF7E0FF52
:202BC000464B3B61464B7B614023BB616623FB6100233B624FF480637B620023BB620023D1
:202BE000FB6200233B634FF400337B634FF0C063FB600023BB6300233B6400237B6407F1A9
:202C00000C0319463448FDF765FF07F148031846FEF7A4F84FF44043A7F848304FF482732B
:202C2000A7F84A300023A7F84C300023A7F84E300123A7F850304FF40073A7F852300023C0
:202C4000A7F854300023A7F856300723A7F8583007F1480319461F48FEF73CF800211D4800
:202C6000FEF7C0F83B2387F85C30002387F85D30012387F85E30012387F85F3007F15C0355
:202C80001846FFF79BFA144A134B1B6823F001031360114B66225A600F4B114ADA600122D2
:202CA00002210C48FEF7BEF801210A48FEF77AF8012210210848FDF799FF074A064B1B68C2
:202CC00043F00103136000BF6037BD4680BD00BF0004024000300140586402400C300140C3
:202CE000A004002080B400AF0A4B1B68002B05D0094A094B1B6843F001031360074A074BDE
:202D00001B8A9BB223F004039BB2138200BFBD4680BC70478004002058640240000001402D
:202D200080B400AF084B01221A604FF080424FF080431B8A9BB223F008039BB2138200BF0C
:042D4000BD4680BC50
:00000001FF
