:020000040800F2
:1000000050F70020010400085D0400085D040008AA
:100010005D0400085D0400085D04000800000000A5
:100020000000000000000000000000005D04000867
:100030005D040008000000005D0400085D04000885
:100040005D0400085D0400085D0400085D0400080C
:100050005D0400085D0400085D0400085D040008FC
:100060005D0400085D0400085D0400085D040008EC
:100070005D0400085D0400085D0400085D040008DC
:100080005D0400085D0400085D0400085D040008CC
:100090005D0400085D0400085D0400085D040008BC
:1000A0005D0400085D0400085D040008D51F000819
:1000B000112000085D0400085D0400085D040008CC
:1000C0005D0400085D0400085D0400085D0400088C
:1000D0005D0400085D0400085D0400085D0400087C
:1000E0005D0400085D0400085D0400085D0400086C
:1000F0005D0400085D0400085D0400085D0400085C
:100100005D0400085D0400085D0400085D0400084B
:100110005D0400085D0400085D0400085D0400083B
:100120005D0400085D0400085D0400083D2000082F
:100130005D0400085D0400085D0400085D0400081B
:100140005D0400085D0400085D0400085D0400080B
:100150005D0400085D0400085D0400085D040008FB
:100160005D0400085D0400085D0400085D040008EB
:100170005D0400085D0400085D0400085D040008DB
:100180005D0400085D04000880B58CB004AF40F247
:100190001313FB8340F21313BB8332233B824FF4D0
:1001A000C8737B834FF496733B830223FB82012346
:1001B000BB820223FB810023FB7401237B7301219B
:1001C000082000F09BF941237B6000233B72012350
:1001D000FB7200237B723B1D1946854800F024FA10
:1001E000B7F91820B7F91A1001230293814B019334
:1001F000102300931023002000F080FE022001F065
:1002000069FF40F21E3001F065FF3B8B013B9BB262
:100210003B83B7F91830002B03DCBB8A5B429BB2EF
:10022000BB823B8B01339BB23B83B7F91830103351
:10023000B3F5167F03DBBB8A5B429BB2BB827B8B31
:10024000013B9BB27B83B7F91A30022B17DCB7F95D
:10025000183003F10802B7F91C309A420DDDB7F9E6
:10026000183003F10802B7F91C3032339A4204DA2D
:10027000FB8A5B429BB2FB8201E00223FB747B8B17
:1002800001339BB27B83B7F91A30103340F21D3231
:10029000934217DDB7F9183003F10802B7F91E30A1
:1002A0009A420DDDB7F9183003F10802B7F91E3094
:1002B00032339A4204DAFB8A5B429BB2FB8201E052
:1002C0000123FB747A8BFB8A13449BB27B833A8BAA
:1002D000BB8A13449BB23B83B7F91820B7F91A10B5
:1002E00000230293434B019310230093102300201B
:1002F00000F004FEBA8B3B8A13449BB21BB2B7F9E1
:100300001C1000220192009302230A4602210020C1
:1003100000F09CFFFA8B3B8A13449BB21BB2B7F9E7
:100320001E1000220192009340F21E330A4640F252
:100330001E31002000F08AFF40212D4800F002FA13
:100340000346002B0CD10121294800F0FBF903469C
:10035000012B05D1BA8BFB89D31A9BB2BB8312E068
:100360000121234800F0EEF90346002B0BD1402178
:100370001F4800F0E7F90346012B04D1BA8BFB8933
:1003800013449BB2BB837B7B002B18D0B7F918209A
:10039000B7F91E3019339A4205DDFA8BFB891344F5
:1003A0009BB2FB830BE0B7F91820B7F91E30193365
:1003B0009A4204DAFA8BFB89D31A9BB2FB831E2084
:1003C00000F050F805E000230B4A2821B42001F08A
:1003D00019F8FB7C012BF6D005E00023074A282101
:1003E000B42001F00FF8FB7C022BF6D0F8E600BF3A
:1003F000000C0240E0210008002200080C22000846
:1004000080B582B000AF104B7B60104B3B6007E0C3
:100410003B681A1D3A607A68111D796012681A608B
:100420003B680B4A9342F3D30A480B494FF0000252
:100430008842B8BF40F8042BFADB00F049F800BF4F
:100440000837BD4680BD00BF7825000800000020A9
:10045000140000202000002050EF002080B400AFE6
:10046000FEE700BFB0B483B000AF7860002507E0BE
:10047000002400E0013444F61F639C42FADD01359C
:100480002A467B689A42F3D300BF0C37BD46B0BC06
:10049000704700BF80B500AF0121094800F02EF879
:1004A0000121012000F048F8012141F2011000F083
:1004B00061F80121082000F021F800BF80BD00BFD5
:1004C0000300400080B400AF00BFBD4680BC704751
:1004D00080B500AF00F0B4F9FFF7DCFFFFF7F2FFE3
:1004E00001F05AFE4FF47041034800F053F9FFF752
:1004F0004BFE0023184680BD000C024080B483B040
:1005000000AF78600B46FB70FB78002B06D00949E2
:10051000084B1A6B7B6813430B6306E00549054BD8
:100520001A6B7B68DB4313400B6300BF0C37BD467F
:1005300080BC70470038024080B483B000AF786060
:100540000B46FB70FB78002B06D00949084B1A6C50
:100550007B6813430B6406E00549054B1A6C7B6806
:10056000DB4313400B6400BF0C37BD4680BC7047B3
:100570000038024080B483B000AF78600B46FB7057
:10058000FB78002B06D00949084B5A6C7B68134353
:100590004B6406E00549054B5A6C7B68DB4313400E
:1005A0004B6400BF0C37BD4680BC7047003802402A
:1005B00080B483B000AF78600B46FB70FB78002BF3
:1005C00006D00949084B1A6A7B6813430B6206E0A0
:1005D0000549054B1A6A7B68DB4313400B6200BF79
:1005E0000C37BD4680BC70470038024080B483B0F1
:1005F00000AF78600B46FB70FB78002B06D00949F2
:10060000084B5A6A7B6813434B6206E00549054B69
:100610005A6A7B68DB4313404B6200BF0C37BD4610
:1006200080BC70470038024080B487B000AF78606B
:10063000396000237B6100233B610023FB600023C2
:100640007B6176E001227B6902FA03F33B613B6840
:100650001A683B691340FB60FA683B699A4265D1AE
:100660007B681A687B695B00032101FA03F3DB43B3
:100670001A407B681A607B681A683B681B791946C8
:100680007B695B0001FA03F31A437B681A603B68DD
:100690001B79012B03D03B681B79022B2ED17B6881
:1006A0009A687B695B00032101FA03F3DB431A407C
:1006B0007B689A607B689A683B685B7919467B69BE
:1006C0005B0001FA03F31A437B689A607B685A68FF
:1006D0007B699BB2012101FA03F3DB431A407B687B
:1006E0005A607B685A683B689B7919467B699BB264
:1006F00001FA03F39BB21A437B685A607B68DA689D
:100700007B699BB25B00032101FA03F3DB431A40D0
:100710007B68DA607B68DA683B68DB7919467B695D
:100720005B0001FA03F31A437B68DA607B690133EB
:100730007B617B690F2B85D900BF1C37BD4680BC10
:10074000704700BF80B485B000AF78600B467B80F7
:100750000023FB737B681A697B881340002B02D04F
:100760000123FB7301E00023FB73FB7B1846143766
:10077000BD4680BC704700BF80B483B000AF7860D6
:100780000B467B807B687A881A8300BF0C37BD4696
:1007900080BC704780B483B000AF78600B467B802C
:1007A0007B687A885A8300BF0C37BD4680BC70478F
:1007B00080B485B000AF78600B467B8013467B70B9
:1007C0000023FB600023BB607A787B8803F007037B
:1007D0009B0002FA03F3FB607B88DB089BB21846A0
:1007E0007B88DB089BB21A467B68083253F82220CC
:1007F0007B8803F007039B000F2101FA03F3DB431F
:1008000002EA03017B6800F1080243F822107B88AA
:10081000DB089BB21A467B68083253F82220FB683B
:100820001343BB607B88DB089BB21A467B680832A7
:10083000B96843F8221000BF1437BD4680BC70472A
:1008400080B500AF124A124B1B6843F001031360DE
:100850000F4B00229A600E4A0D4B1B6823F08473E5
:1008600023F4803313600A4B0A4A5A60084A084B43
:100870001B6823F480231360054B0022DA6000F02C
:100880000DF8054B4FF000629A6000BF80BD00BFBD
:10089000003802401030002400ED00E080B483B046
:1008A00000AF00237B6000233B60354A344B1B685C
:1008B00043F480331360324B1B6803F400333B6016
:1008C0007B6801337B603B68002B03D17B68B3F509
:1008D000A06FF0D12A4B1B6803F40033002B02D029
:1008E00001233B6001E000233B603B68012B42D1C8
:1008F000234A234B1B6C43F080531364214A214B42
:100900001B6843F4804313601D4A1D4B9B68936032
:100910001B4A1B4B9B6843F400439360184A184BD7
:100920009B6843F4A0539360154B174A5A60144ACE
:10093000134B1B6843F08073136000BF104B1B68A0
:1009400003F00073002BF9D0104B40F205621A60DF
:100950000B4A0B4B9B6823F003039360084A084B38
:100960009B6843F00203936000BF054B9B6803F054
:100970000C03082BF9D100BF0C37BD4680BC704773
:10098000003802400070004008484007003C024028
:1009900080B483B000AF78607B681B6823F00102ED
:1009A0007B681A607B6800221A607B6800225A60AC
:1009B0007B6800229A607B680022DA607B680022F4
:1009C0001A617B6821225A617B68454A934203D1B0
:1009D000444B3D229A607EE07B68434A934204D1B7
:1009E000404B4FF474629A6075E07B683F4A9342D3
:1009F00004D13C4B4FF474129A606CE07B683C4A23
:100A0000934204D1374B4FF074629A6063E07B6885
:100A1000384A934203D1334B374ADA605BE07B6854
:100A2000364A934203D12F4B354ADA6053E07B6854
:100A3000344A934203D12B4B334ADA604BE07B6854
:100A4000324A934204D1274B4FF03D52DA6042E0E4
:100A50007B682F4A934203D12E4B3D229A603AE0A5
:100A60007B682D4A934204D12A4B4FF474629A60FA
:100A700031E07B68294A934204D1264B4FF474122B
:100A80009A6028E07B68264A934204D1214B4FF0BC
:100A900074629A601FE07B68224A934203D11D4B27
:100AA000154ADA6017E07B681F4A934203D1194B5D
:100AB000134ADA600FE07B681C4A934203D1154B5E
:100AC000114ADA6007E07B68194A934203D1114B5F
:100AD0004FF03D52DA6000BF0C37BD4680BC704716
:100AE0001060024000600240286002404060024006
:100AF00058600240706002403D0000208860024063
:100B0000400F0020A060024000003D20B86002407D
:100B100010640240006402402864024040640240C5
:100B2000586402407064024088640240A06402403D
:100B3000B864024080B485B000AF786039600023AB
:100B4000FB607B681B68FB60FA68244B1340FB600A
:100B50003B681A683B68DB681A433B685B691A4369
:100B60003B689B691A433B68DB691A433B681B6A15
:100B70001A433B685B6A1A433B689B6A1A433B68AB
:100B80005B6B1A433B689B6B1343FA681343FB6030
:100B90007B68FA681A607B685B69FB60FB6823F01E
:100BA0000703FB603B68DA6A3B681B6B1343FA6818
:100BB0001343FB607B68FA685A613B681A697B687B
:100BC0005A603B685A687B689A603B689A687B68A1
:100BD000DA6000BF1437BD4680BC70473F801CF010
:100BE00080B483B000AF78607B6800221A607B68B5
:100BF00000225A607B6800229A607B680022DA60DB
:100C00007B6800221A617B6800225A617B6800229F
:100C10009A617B680022DA617B6800221A627B6835
:100C200000225A627B6800229A627B680022DA62A4
:100C30007B6800221A637B6800225A637B6800226B
:100C40009A6300BF0C37BD4680BC704780B485B046
:100C500000AFF860B9601346FB71BB6803F0800316
:100C6000002B0FD0FB79002B06D0FB685B6943F0AB
:100C70008002FB685A6105E0FB685B6923F0800233
:100C8000FB685A61BB68802B14D0FB79002B08D01D
:100C9000FB681A68BB6803F01E031A43FB681A60FE
:100CA00008E0FB681A68BB6803F01E03DB431A40C8
:100CB000FB681A6000BF1437BD4680BC704700BF98
:100CC00080B582B000AF78607B68174A93420AD142
:100CD00001214FF48050FFF789FC00214FF4805030
:100CE000FFF784FC1CE07B68104A93420AD1012183
:100CF0004FF48040FFF75CFC00214FF48040FFF789
:100D000057FC0DE07B680A4A934209D101214FF458
:100D10000040FFF74DFC00214FF40040FFF748FC76
:100D200000BF0837BD4680BD00300140003800409C
:100D3000003C004080B485B000AF7860396000238B
:100D4000FB817B681B88FB81FB8903F44153FB819A
:100D50003B681A883B685B8813439AB23B689B8860
:100D600013439AB23B68DB8813439AB23B681B89F2
:100D700013439AB23B685B8913439AB23B689B89E1
:100D800013439AB23B68DB8913439AB2FB8913433E
:100D9000FB817B68FA891A807B689B8B9BB223F46A
:100DA00000639AB27B689A833B681A8A7B681A82CE
:100DB00000BF1437BD4680BC704700BF80B483B00D
:100DC00000AF78607B6800221A807B6800225A801E
:100DD0007B6800229A807B680022DA807B68002290
:100DE0001A817B6800225A817B6800229A817B6885
:100DF0000022DA817B6807221A8200BF0C37BD46C9
:100E000080BC704780B483B000AF78600B46FB7045
:100E1000FB78002B08D07B681B889BB243F0400313
:100E20009AB27B681A8007E07B681B889BB223F02C
:100E300040039AB27B681A8000BF0C37BD4680BC65
:100E4000704700BF80B483B000AF78600B46FB7082
:100E5000FB78002B08D07B681B889BB243F40053BF
:100E60009AB27B681A8007E07B681B889BB223F4E8
:100E700000539AB27B681A8000BF0C37BD4680BC15
:100E8000704700BF80B483B000AF78600B467B80B2
:100E900013467B707B78002B08D07B689B889AB2C6
:100EA0007B8813439AB27B689A8009E07B689B88B1
:100EB0009AB27B88DB439BB213409AB27B689A80DC
:100EC00000BF0C37BD4680BC704700BF80B485B002
:100ED00000AF78600023FB6005E0FB680133FB6036
:100EE0007B6801337B607B681B78002BF5D1FB6846
:100EF0009BB218461437BD4680BC704780B493B08F
:100F000000AFF860084611461A4603467B810B463F
:100F10003B811346FB80FB68002B0FD0FB68B3F9C5
:100F200000309AB27B8913449BB27B81FB68B3F992
:100F300002309AB23B8913449BB23B81B7F9063029
:100F4000DB08FB63FB6BDA00B7F906309A4202D28A
:100F5000FB6B0133FB63B7F90A30DB087B62B7F93F
:100F60000A207B6ADB00D31A3B62FB68002B11D19D
:100F7000B7F90A20B7F906301344B3F5487F05DB0B
:100F80007B89C3F54873A7F840301CE0FB88A7F8BD
:100F9000403018E0B7F90A20B7F906301A44B7F91B
:100FA0000A30F968B1F904100B449A4208DBFB6877
:100FB000B3F904309AB27B89D31AA7F8403002E023
:100FC000FB88A7F840300023A7F84630B7E0B7F811
:100FD0004620B7F908301344B3F5167F80F2B78086
:100FE000B7F90A30DA08B7F90810B7F846300B44F9
:100FF0001946662303FB01F31344FB61564BBB61A7
:10100000BA69FB691344BB613A6A13469B079B1A92
:101010009B001A46BB6903F188735B0113441C33C0
:101020007B63BB6903F188735B011C333B63B7F8D7
:101030004630FA6B02FB03F37A6D1344BB62FB8804
:10104000A7F844300023A7F842300023A7F8443023
:101050006AE07B6BDBB223F01F03FB75B7F842300D
:101060005A1CA7F84220002B06D1BB6A1B7887F8D0
:101070003B30BB6A0133BB62B7F8423003F0070371
:10108000A7F8423097F93B30002B02DA0123FB62CC
:1010900001E00023FB62B7F85830032B2AD801A2E5
:1010A00052F823F0B5100008BF100008D110000856
:1010B000E3100008FB6ADAB27B6B1A701AE07B6BF4
:1010C0001A78FB6ADBB25340DAB27B6B1A7011E01C
:1010D0007B6B1A78FB6ADBB21340DAB27B6B1A7057
:1010E00008E07B6B1A78FB6ADBB21343DAB27B6BE6
:1010F0001A7000BF7B6B043B7B637B6B03F0E003E8
:101100003B61FA7D3B699A4204D03B6B20337B63A1
:101110007B6B3B6397F83B305B0087F83B30B7F85D
:1011200044300133A7F84430B7F84420B7F84030D2
:101130009A428ED3B7F846300133A7F84630B7F855
:101140004620B7F950309A42FFF641AF00E000BFA9
:101150004C37BD4680BC704740000020B0B487B01B
:1011600000AFF860084611461A4603467B810B46DD
:101170003B811346FB807B89B3F5487F5ED23B8978
:10118000B3F5167F5AD27B89DB08FB82FB8ADB0032
:101190009BB27A89D31ABB82BB8A802242FA03F3BC
:1011A000FB74FB88012B1AD0022B2FD0002B46D1C9
:1011B0003A89FB8A3889F98A234C662505FB00F0B9
:1011C000204401440878F97C0143CCB21E496620D2
:1011D00000FB02F20A44134422461A702FE03A89B7
:1011E000FB8A3889F98A184C662505FB00F02044F3
:1011F00001440878F97C4140CCB21349662000FBD9
:1012000002F20A44134422461A7018E03A89FB8A13
:101210003889F98A0C4C662505FB00F0204401440E
:101220000878F97C0140CCB20749662000FB02F245
:101230000A44134422461A7000BF00E000BF1C3766
:10124000BD46B0BC704700BF4000002080B58AB0EA
:1012500000AFF860084611461A4603467B810B46EC
:101260003B811346FB80FA887B89D31A9BB2FB84AF
:101270003A8E3B89D31A9BB2BB84B7F92630002B38
:1012800003DAFB8C5B429BB2FB84B7F92430002B62
:1012900003DABB8C5B429BB2BB840123FB83B7F9AF
:1012A0000620B7F90A309A4202DA4FF6FF73FB8341
:1012B0000123BB83B7F93020B7F908309A4202DA2C
:1012C0004FF6FF73BB837B897B833B893B83B7F9F5
:1012D0002620B7F924309A4248DD798B3A8BBB8EB1
:1012E000F868FFF73BFFBB8C5B009AB2FB8CD31A0C
:1012F0009BB23B84B7F92420B7F92630D31A9BB2AE
:101300005B009BB2FB82BB8C5B009BB2BB82002369
:101310007B8424E0B7F92030002B0ADB3A8BBB8BAF
:1013200013449BB23B833A8CFB8A13449BB23B84AD
:1013300004E03A8CBB8A13449BB23B847A8BFB8BD0
:1013400013449BB27B83798B3A8BBB8EF868FFF793
:1013500005FFB7F922309BB201339BB27B84B7F90A
:101360002220B7F926309A42D4DB47E0798B3A8BBA
:10137000BB8EF868FFF7F2FEFB8C5B009AB2BB8C69
:10138000D31A9BB23B84B7F92620B7F92430D31A7D
:101390009BB25B009BB2FB82FB8C5B009BB2BB826F
:1013A00000237B8424E0B7F92030002B0ADB7A8B02
:1013B000FB8B13449BB27B833A8CFB8A13449BB216
:1013C0003B8404E03A8CBB8A13449BB23B843A8B47
:1013D000BB8B13449BB23B83798B3A8BBB8EF868F3
:1013E000FFF7BCFEB7F922309BB201339BB27B847E
:1013F000B7F92220B7F924309A42D4DB00BF28374E
:10140000BD4680BD80B58CB004AFBA601A460346B5
:10141000FB810B46BB811346FB80B868FFF756FD86
:1014200003467B83FB89BB830023FB832CE0BB68E3
:101430005A1CBA601B787B767B7E1F2B21D97B7E62
:101440009BB21A46D20013449BB2A3F59073FB8261
:10145000FB8A124A13443B61B7F91C10B7F90C2000
:10146000FB8802933B690193092300930623002024
:10147000FFF744FDBB8B0633BB83BB8BB3F5487FC3
:1014800007D2FB8B0133FB83FA8B7B8B9A42CED343
:1014900000E000BF2037BD4680BD00BF1822000815
:1014A00080B485B000AF78600023FB730023BB736A
:1014B0000F237B737B68DB78002B38D0264BDB68EF
:1014C000DB4303F4E0631B0AFB73FB7BC3F1040300
:1014D000BB737A7BFB7B42FA03F37B737B685B789D
:1014E0001A46BB7B02FA03F3FB737B689A787B7B1B
:1014F0001340DAB2FB7B1343FB73FB7B1B01FB73D3
:10150000164A7B681B781344FA7B83F80023134A3E
:101510007B681B785B09DBB218467B681B7803F09D
:101520001F03012101FA03F342F820300FE00B49B9
:101530007B681B785B09DBB218467B681B7803F07D
:101540001F0301229A4000F1200341F8232000BF2D
:101550001437BD4680BC704700ED00E000E100E0BC
:1015600080B485B000AF786039600023FB817B6870
:101570001B88FB817B68284A934213D07B68274AEB
:1015800093420FD07B68B3F1804F0BD07B68244A25
:10159000934207D07B68234A934203D07B68224A58
:1015A000934208D1FB8923F07003FB813B685A8882
:1015B000FB891343FB817B681C4A93420CD07B68F8
:1015C0001B4A934208D0FB8923F44073FB813B689C
:1015D0001A89FB891343FB817B68FA891A803B686F
:1015E0005A687B68DA623B681A887B681A857B6870
:1015F000094A934203D07B68084A934204D13B686E
:101600009B7A9AB27B681A867B6801229A8200BF15
:101610001437BD4680BC7047000001400004014003
:101620000004004000080040000C00400010004092
:101630000014004080B483B000AF78600B46FB70AC
:10164000FB78002B08D07B681B889BB243F080039B
:101650009AB27B681A8007E07B681B889BB223F0F4
:1016600080039AB27B681A8000BF0C37BD4680BCED
:10167000704700BF80B483B000AF78600B46FB704A
:10168000FB78002B08D07B681B889BB243F00103DA
:101690009AB27B681A8007E07B681B889BB223F0B4
:1016A00001039AB27B681A8000BF0C37BD4680BC2C
:1016B000704700BF80B485B000AF78603960002308
:1016C0007B810023FB810023BB817B681B8C9BB249
:1016D00023F001039AB27B681A847B681B8CFB8120
:1016E0007B689B88BB817B681B8B7B817B8923F01C
:1016F00070037B817B8923F003037B813B681A881D
:101700007B8913437B81FB8923F00203FB813B68C8
:101710009A89FB891343FB813B685A88FB891343F1
:10172000FB817B681E4A934203D07B681D4A93422B
:1017300023D1FB8923F00803FB813B68DA89FB890D
:101740001343FB81FB8923F00403FB813B689A88E8
:10175000FB891343FB81BB8923F48073BB81BB8965
:1017600023F40073BB813B681A8ABB891343BB8196
:101770003B685A8ABB891343BB817B68BA899A80CC
:101780007B687A891A833B689A687B685A637B68AE
:10179000FA891A8400BF1437BD4680BC704700BF69
:1017A000000001400004014080B485B000AF7860C3
:1017B000396000237B810023FB810023BB817B6890
:1017C0001B8C9BB223F010039AB27B681A847B684F
:1017D0001B8CFB817B689B88BB817B681B8B7B811F
:1017E0007B8923F4E0437B817B8923F440737B81F5
:1017F0003B681B881B029AB27B8913437B81FB8960
:1018000023F02003FB813B689B891B019AB2FB8973
:101810001343FB813B685B881B019AB2FB8913432E
:10182000FB817B68224A934203D07B68214A934222
:101830002BD1FB8923F08003FB813B68DB891B01F3
:101840009AB2FB891343FB81FB8923F04003FB81A0
:101850003B689B881B019AB2FB891343FB81BB89C0
:1018600023F48063BB81BB8923F40063BB813B68A5
:101870001B8A9B009AB2BB891343BB813B685B8A7E
:101880009B009AB2BB891343BB817B68BA899A805B
:101890007B687A891A833B689A687B689A637B685D
:1018A000FA891A8400BF1437BD4680BC704700BF58
:1018B000000001400004014080B485B000AF7860B2
:1018C000396000237B810023FB810023BB817B687F
:1018D0001B8C9BB223F480739AB27B681A847B685A
:1018E0001B8CFB817B689B88BB817B689B8B7B818E
:1018F0007B8923F070037B817B8923F003037B8149
:101900003B681A887B8913437B81FB8923F400732E
:10191000FB813B689B891B029AB2FB891343FB81C5
:101920003B685B881B029AB2FB891343FB817B688F
:10193000224A934203D07B68214A93422BD1FB89F0
:1019400023F40063FB813B68DB891B029AB2FB89AD
:101950001343FB81FB8923F48063FB813B689B88F5
:101960001B029AB2FB891343FB81BB8923F480538A
:10197000BB81BB8923F40053BB813B681B8A1B01DD
:101980009AB2BB891343BB813B685B8A1B019AB245
:10199000BB891343BB817B68BA899A807B687A894B
:1019A0009A833B689A687B68DA637B68FA891A8451
:1019B00000BF1437BD4680BC704700BF0000014027
:1019C0000004014080B483B000AF78607B680022DF
:1019D0001A807B6800225A807B6800229A807B688C
:1019E00000229A607B6800229A817B680022DA815B
:1019F0007B6800221A827B6800225A8200BF0C3763
:101A0000BD4680BC704700BF80B485B000AF786031
:101A10000B467B800023FB817B681B8BFB81FB8952
:101A200023F00803FB81FA897B881343FB817B68E1
:101A3000FA891A8300BF1437BD4680BC704700BFC7
:101A400080B485B000AF78600B467B800023FB81BB
:101A50007B681B8BFB81FB8923F40063FB817B8804
:101A60001B029AB2FB891343FB817B68FA891A83B4
:101A700000BF1437BD4680BC704700BF80B483B040
:101A800000AF78600B46FB70FB78002B0CD07B68B6
:101A9000B3F844309BB26FEA43436FEA53439AB2C0
:101AA0007B68A3F8442009E07B68B3F844309BB21C
:101AB000C3F30E039AB27B68A3F8442000BF0C372F
:101AC000BD4680BC704700BF80B483B000AF786073
:101AD0000B467B8013467B707B78002B08D07B689D
:101AE0009B899AB27B8813439AB27B689A8109E0FA
:101AF0007B689B899AB27B88DB439BB213409AB286
:101B00007B689A8100BF0C37BD4680BC704700BF20
:101B100080B485B000AF78600B467B800023FB81EA
:101B20007B681B89FB81FB8923F07003FB81FA89A9
:101B30007B881343FB817B68FA891A8100BF1437C5
:101B4000BD4680BC704700BF80B483B000AF7860F2
:101B50000B467B807B689B889BB223F070039AB214
:101B60007B689A807B689B889AB27B8813439AB281
:101B70007B689A8000BF0C37BD4680BC704700BFB1
:101B800080B483B000AF78600B467B807B681B8994
:101B90009BB223F007039AB27B681A817B681B898A
:101BA0009AB27B8813439AB27B681A8100BF0C37C4
:101BB000BD4680BC704700BF80B483B000AF786082
:101BC0000B467B807B681B899BB223F080039AB213
:101BD0007B681A817B681B899AB27B8813439AB20F
:101BE0007B681A8100BF0C37BD4680BC704700BFC0
:101BF00080B58EB000AF07F1140300221A605A605E
:101C00009A603B4600221A605A609A60DA601A6154
:101C100000237B6300237B8600233B860023FB8518
:101C20004FF481737B62022387F82830022387F800
:101C30002930002387F82A30012387F82B3007F159
:101C4000240319467F48FEF7EFFC012208217D4856
:101C5000FEF7AEFD012201217A48FEF7A9FD7A4B7D
:101C60001B687A4AA2FB0323DB0B7B63764B1B6862
:101C7000774AA2FB03235B0C7B86734B1B685B09D3
:101C8000744AA2FB0323DB093B8607F114031946C0
:101C90007148FFF765FC0023BB820023FB827B6B4E
:101CA000BB610023BB830023BB7707F114031946F4
:101CB0006948FFF755FC3B461846FFF783FE702343
:101CC0003B807B8EBB6001237B800123BB80022392
:101CD000BB810223FB8100233B8200237B823B46A6
:101CE00019465D48FFF7E6FC70233B803B8EBB60E6
:101CF0003B4619465848FFF757FD08215648FFF75D
:101D000083FE08215448FFF79BFE01215248FFF74C
:101D100091FC01215048FFF7B1FE80214E48FFF7AA
:101D20004BFF20214C48FFF70FFF05214FF080406B
:101D3000FFF726FF00214FF08040FFF7E9FE40F259
:101D400071237B6302233B861823FB8507F1140371
:101D500019464FF08040FFF703FC0023BB820023AD
:101D6000FB827B6BBB610023BB830023BB7707F146
:101D7000140319464FF08040FFF7F2FB3B4618462C
:101D8000FFF720FE70233B8001237B800423BB8070
:101D90003B8EBB600223BB810823FB8100233B8277
:101DA00000237B823B4619464FF08040FFF7FCFC46
:101DB00020233B80FB8DBB603B4619464FF08040A3
:101DC000FFF77AFD01214FF08040FFF757FE1C23FB
:101DD00087F82030012387F82130002387F822304C
:101DE000012387F8233007F120031846FFF758FB3B
:101DF000012208214FF08040FFF766FE1B2387F881
:101E00002030012387F82130002387F82230012376
:101E100087F8233007F120031846FFF741FB012222
:101E200004210D48FFF750FE01214FF08040FFF7DD
:101E300021FC01210848FFF71DFC00BF3837BD46D3
:101E400080BD00BF0000024000000020E9699CEE58
:101E500083DE1B43DF4ED3050000014080B598B000
:101E600000AF20237B6002233B7202237B7200239E
:101E7000BB723B1D19465148FEF7D6FB05220521D2
:101E80004E48FEF795FC4E48FEF71AFF00214C48DD
:101E9000FEF7B8FF4B48FEF77BFD07F10C03184631
:101EA000FEF79EFE484B3B61484B7B614023BB6184
:101EB0006623FB6100233B624FF480637B62002357
:101EC000BB620023FB6200233B634FF400337B6360
:101ED0004FF0C063FB600023BB6300233B6400231F
:101EE0007B6407F10C0319463648FEF723FE07F121
:101EF00048031846FEF762FF4FF44043A7F8483006
:101F00004FF48273A7F84A300023A7F84C3000231F
:101F1000A7F84E300123A7F850304FF40073A7F80C
:101F200052300023A7F854300023A7F85630072377
:101F3000A7F8583007F1480319462148FEF7FAFE82
:101F400000211F48FEF77EFF3B2387F85C3000230B
:101F500087F85D30012387F85E30012387F85F3012
:101F600007F15C031846FFF79BFA164A154B1B68EE
:101F700023F001031360134B66225A60114B134A7E
:101F8000DA60012202210E48FEF77CFF01210C4895
:101F9000FEF738FF012210210A48FEF757FE094AD2
:101FA000084B1B6843F0010313604FF4805108484D
:101FB000FEF7E2FB00BF6037BD4680BD0004024073
:101FC00000300140586402400C30014040000020C5
:101FD000000C024080B400AF0A4B1B68002B05D0F8
:101FE000094A094B1B6843F001031360074A074B7A
:101FF0001B8A9BB223F004039BB2138200BFBD4631
:1020000080BC70472400002058640240000001405A
:1020100080B400AF084B01221A604FF080424FF0AD
:1020200080431B8A9BB223F008039BB2138200BF3C
:10203000BD4680BC704700BF2400002080B400AFC4
:102040001E4B4FF000629A601D4A1D4B1B6823F027
:10205000010313601A4B66225A601A4B1B68013346
:10206000184A1360174B1B68012B22D1154B002215
:102070001A60154B1B889BB201339AB2124B1A801F
:10208000114B1B889BB2B3F5167F0DD10F4B00226D
:102090001A6000210C4B0A461A800A46094B1A6046
:1020A000074B0B4ADA6004E0054A054BDB686633F0
:1020B000D36000BFBD4680BC704700BF00640240D3
:1020C0005864024028000020200000202400002046
:1020D00040000020B0B485B000AF0346FB80002371
:1020E000FB8126E0FB89FA88D20891B20C46FA8976
:1020F0000D461449662000FB02F20A442A44127875
:1021000051B2FA88D24302F00702012000FA02F22B
:1021100052B2D24352B20A4052B2D0B2094A6621F8
:1021200001FB03F31344234402461A70FB89013375
:10213000FB81FB89B3F5167FD4D300BF1437BD46AE
:10214000B0BC70474000002080B483B000AF0023D3
:10215000BB8015E00023FB800CE0BA88FB880D49AA
:10216000662000FB02F20A44134400221A70FB8826
:102170000133FB80FB88652BEFD9BB880133BB8023
:10218000BB88B3F5167FE5D300BF0C37BD4680BCD6
:10219000704700BF4000002080B582B000AF4FF410
:1021A00070433B6001233B7103237B710023BB71B0
:1021B0000023FB713B4619460848FEF735FA4FF4F9
:1021C00000410648FEF7D8FAFFF748FEFFF710FD7A
:1021D000FFF7BAFF00BF0837BD4680BD000C0240C4
:1021E000018007E01FF83FFC3FFC7FFE7FFEFFFF02
:1021F000FFFF7FFE7FFE3FFC3FFC1FF807E00180F2
:102200004C4546542057494E530000005249474818
:10221000542057494E530000000000000000000009
:10222000000020202020200020000050500000004E
:10223000000000000050F850F8500000002078A086
:102240007028F0200000C8D02020205898000020DE
:10225000502040A8987000002020200000000000BE
:1022600000204080808040200000201008080810D6
:1022700020000000A870F870A8000000002020F8DE
:10228000202000000000000000202040000000008E
:1022900000700000000000000000000000200000AE
:1022A000101020202040400000708888A888887086
:1022B00000006020202020207000007088087080BE
:1022C00080F80000708808300888700000103050D6
:1022D00090F810100000F08080F008887000003046
:1022E0004080B0C888700000F8081020408080004E
:1022F00000708888708888700000708888780888E6
:10230000700000003030003030000000003030003D
:10231000303060000010204080402010000000009D
:10232000F800F800000000402010081020400000D5
:102330007088081020002000007088B8A8B8807845
:10234000000070888888F888880000F08888F08805
:1023500088F00000708880808088700000F0888895
:10236000888888F00000F88080F08080F80000F80D
:102370008080F08080800000708880B8888870003D
:1023800000888888F8888888000070202020202015
:102390007000000808080888887000008890A0C0B5
:1023A000A090880000808080808080F8000088D81D
:1023B000A888888888000088C8A89888888800002D
:1023C000708888888888700000F08888F080808015
:1023D000000070888888A890680000F08888F0A0C5
:1023E00090880000708880700888700000F82020B5
:1023F0002020202000008888888888887000008835
:10240000888888885020000088888888A8A870005C
:1024100000888850205088880000888888502020B4
:10242000200000F80810204080F800007040404074
:10243000404070000040402020201010000070102C
:1024400010101010700000205080000000000000EC
:10245000000000000000F800002020100000000034
:102460000000000070087898680000008080F08804
:1024700088F0000000007880808078000000080864
:1024800078888878000000007088F0807000003044
:1024900040406040404000000000788878087000AC
:1024A000000000000000000000000000000000002C
:1024B000000000000000000000000000000000001C
:1024C000000000000000000000000000000000000C
:1024D00000000000000000000000000000000000FC
:1024E00000000000000000000000000000000000EC
:1024F00000000000000000000000000000000000DC
:1025000000000000000000000000000000000000CB
:1025100000000000000000000000000000000000BB
:1025200000000000000000000000000000000000AB
:10253000000000000000000000000000000000009B
:10254000000000000000000000000000000000008B
:10255000000000000000000000000000000000007B
:10256000000000000000000000000000000000006B
:08257000000000000000000063
:102578000044950800000000000000000102030468
:042588000607080931
:0400000508000000EF
:00000001FF
