:020000040800F2
:1000000050F7002089010008E5010008E50100081B
:10001000E5010008E5010008E50100080000000016
:10002000000000000000000000000000E5010008E2
:10003000E501000800000000E5010008E5010008F6
:10004000E5010008E5010008E5010008E5010008F8
:10005000E5010008E5010008E5010008E5010008E8
:10006000E5010008E5010008E5010008E5010008D8
:10007000E5010008E5010008E5010008E5010008C8
:10008000E5010008E5010008E5010008E5010008B8
:10009000E5010008E5010008E5010008E5010008A8
:1000A000E5010008E5010008E5010008A11A0008C3
:1000B000DD1A0008E5010008E5010008E501000877
:1000C000E5010008E5010008E5010008E501000878
:1000D000E5010008E5010008E5010008E501000868
:1000E000E5010008E5010008E5010008E501000858
:1000F000E5010008E5010008E5010008E501000848
:10010000E5010008E5010008E5010008E501000837
:10011000E5010008E5010008E5010008E501000827
:10012000E5010008E5010008E5010008091B0008D9
:10013000E5010008E5010008E5010008E501000807
:10014000E5010008E5010008E5010008E5010008F7
:10015000E5010008E5010008E5010008E5010008E7
:10016000E5010008E5010008E5010008E5010008D7
:10017000E5010008E5010008E5010008E5010008C7
:10018000E5010008E501000880B582B000AF104B22
:100190007B60104B3B6007E03B681A1D3A607A6851
:1001A000111D796012681A603B680B4A9342F3D3C1
:1001B0000A480B494FF000028842B8BF40F8042BB0
:1001C000FADB00F049F800BF0837BD4680BD00BF2C
:1001D000B41F0008000000201400002020000020B0
:1001E00050EF002080B400AFFEE700BFB0B483B092
:1001F00000AF7860002507E0002400E0013444F6F9
:100200001F639C42FADD01352A467B689A42F3D38C
:1002100000BF0C37BD46B0BC704700BF80B500AF13
:100220000121094800F04CF80121012000F066F896
:10023000012141F2011000F07FF80121082000F0B7
:100240003FF800BF80BD00BF0300400080B400AF96
:1002500000BFBD4680BC704780B582B000AF00F0E3
:10026000A9F9FFF7DBFFFFF7F1FF01F0C1FC4FF445
:100270004873FB804FF49673BB801E20FFF7B6FFD8
:1002800001F08EFCB7F90410B7F9060000230B4A01
:1002900000F01EFEB7F906309BB2013B9BB2FB801B
:1002A000FB88013B9BB2FB80B7F9063013F1630F6B
:1002B000E3DA4FF44873FB80DFE700BF381C000827
:1002C00080B483B000AF78600B46FB70FB78002BE6
:1002D00006D00949084B1A6B7B6813430B6306E091
:1002E0000549054B1A6B7B68DB4313400B6300BF6A
:1002F0000C37BD4680BC70470038024080B483B0E4
:1003000000AF78600B46FB70FB78002B06D00949E4
:10031000084B1A6C7B6813430B6406E00549054BD8
:100320001A6C7B68DB4313400B6400BF0C37BD467F
:1003300080BC70470038024080B483B000AF786062
:100340000B46FB70FB78002B06D00949084B5A6C12
:100350007B6813434B6406E00549054B5A6C7B6888
:10036000DB4313404B6400BF0C37BD4680BC704775
:100370000038024080B483B000AF78600B46FB7059
:10038000FB78002B06D00949084B1A6A7B68134397
:100390000B6206E00549054B1A6A7B68DB43134094
:1003A0000B6200BF0C37BD4680BC7047003802406E
:1003B00080B483B000AF78600B46FB70FB78002BF5
:1003C00006D00949084B5A6A7B6813434B6206E022
:1003D0000549054B5A6A7B68DB4313404B6200BFFB
:1003E0000C37BD4680BC70470038024080B487B0EF
:1003F00000AF7860396000237B6100233B610023FC
:10040000FB6000237B6176E001227B6902FA03F343
:100410003B613B681A683B691340FB60FA683B69C3
:100420009A4265D17B681A687B695B00032101FAF7
:1004300003F3DB431A407B681A607B681A683B68E9
:100440001B7919467B695B0001FA03F31A437B6849
:100450001A603B681B79012B03D03B681B79022B88
:100460002ED17B689A687B695B00032101FA03F354
:10047000DB431A407B689A607B689A683B685B79CB
:1004800019467B695B0001FA03F31A437B689A60A3
:100490007B685A687B699BB2012101FA03F3DB4355
:1004A0001A407B685A607B685A683B689B7919469A
:1004B0007B699BB201FA03F39BB21A437B685A60D3
:1004C0007B68DA687B699BB25B00032101FA03F366
:1004D000DB431A407B68DA607B68DA683B68DB796B
:1004E00019467B695B0001FA03F31A437B68DA6003
:1004F0007B6901337B617B690F2B85D900BF1C377A
:10050000BD4680BC704700BF80B483B000AF786048
:100510000B467B807B687A881A8300BF0C37BD4608
:1005200080BC704780B485B000AF78600B467B809C
:1005300013467B700023FB600023BB607A787B88C6
:1005400003F007039B0002FA03F3FB607B88DB08E0
:100550009BB218467B88DB089BB21A467B68083240
:1005600053F822207B8803F007039B000F2101FA38
:1005700003F3DB4302EA03017B6800F1080243F85E
:1005800022107B88DB089BB21A467B68083253F83E
:100590002220FB681343BB607B88DB089BB21A46B2
:1005A0007B680832B96843F8221000BF1437BD4693
:1005B00080BC704780B500AF124A124B1B6843F0F5
:1005C000010313600F4B00229A600E4A0D4B1B680B
:1005D00023F0847323F4803313600A4B0A4A5A6071
:1005E000084A084B1B6823F480231360054B002244
:1005F000DA6000F00DF8054B4FF000629A6000BF22
:1006000080BD00BF003802401030002400ED00E043
:1006100080B483B000AF00237B6000233B60354A89
:10062000344B1B6843F480331360324B1B6803F474
:1006300000333B607B6801337B603B68002B03D158
:100640007B68B3F5A06FF0D12A4B1B6803F400332D
:10065000002B02D001233B6001E000233B603B689C
:10066000012B42D1234A234B1B6C43F0805313646C
:10067000214A214B1B6843F4804313601D4A1D4BE4
:100680009B6893601B4A1B4B9B6843F40043936039
:10069000184A184B9B6843F4A0539360154B174AB4
:1006A0005A60144A134B1B6843F08073136000BFF9
:1006B000104B1B6803F00073002BF9D0104B40F275
:1006C00005621A600B4A0B4B9B6823F0030393608F
:1006D000084A084B9B6843F00203936000BF054B38
:1006E0009B6803F00C03082BF9D100BF0C37BD4603
:1006F00080BC704700380240007000400848400746
:10070000003C024080B483B000AF78607B681B6817
:1007100023F001027B681A607B6800221A607B6804
:1007200000225A607B6800229A607B680022DA60AF
:100730007B6800221A617B6821225A617B68454AE6
:10074000934203D1444B3D229A607EE07B68434A4A
:10075000934204D1404B4FF474629A6075E07B6819
:100760003F4A934204D13C4B4FF474129A606CE0C0
:100770007B683C4A934204D1374B4FF074629A60D5
:1007800063E07B68384A934203D1334B374ADA60DF
:100790005BE07B68364A934203D12F4B354ADA60DF
:1007A00053E07B68344A934203D12B4B334ADA60DF
:1007B0004BE07B68324A934204D1274B4FF03D52C5
:1007C000DA6042E07B682F4A934203D12E4B3D22F0
:1007D0009A603AE07B682D4A934204D12A4B4FF449
:1007E00074629A6031E07B68294A934204D1264BB7
:1007F0004FF474129A6028E07B68264A934204D131
:10080000214B4FF074629A601FE07B68224A93424A
:1008100003D11D4B154ADA6017E07B681F4A9342EB
:1008200003D1194B134ADA600FE07B681C4A9342EC
:1008300003D1154B114ADA6007E07B68194A9342ED
:1008400003D1114B4FF03D52DA6000BF0C37BD466B
:1008500080BC704710600240006002402860024087
:100860004060024058600240706002403D0000203D
:1008700088600240400F0020A060024000003D2040
:10088000B8600240106402400064024028640240E4
:100890004064024058640240706402408864024030
:1008A000A0640240B864024080B485B000AF7860B4
:1008B00039600023FB607B681B68FB60FA68244B8F
:1008C0001340FB603B681A683B68DB681A433B686F
:1008D0005B691A433B689B691A433B68DB691A43AF
:1008E0003B681B6A1A433B685B6A1A433B689B6A16
:1008F0001A433B685B6B1A433B689B6B1343FA6874
:100900001343FB607B68FA681A607B685B69FB6075
:10091000FB6823F00703FB603B68DA6A3B681B6BEC
:100920001343FA681343FB607B68FA685A613B68BB
:100930001A697B685A603B685A687B689A603B68B2
:100940009A687B68DA6000BF1437BD4680BC704788
:100950003F801CF080B483B000AF78607B680022D9
:100960001A607B6800225A607B6800229A607B686C
:100970000022DA607B6800221A617B6800225A61DB
:100980007B6800229A617B680022DA617B68002222
:100990001A627B6800225A627B6800229A627B6836
:1009A0000022DA627B6800221A637B6800225A63A5
:1009B0007B6800229A6300BF0C37BD4680BC70473D
:1009C00080B485B000AFF860B9601346FB71BB68B6
:1009D00003F08003002B0FD0FB79002B06D0FB68BF
:1009E0005B6943F08002FB685A6105E0FB685B6964
:1009F00023F08002FB685A61BB68802B14D0FB791E
:100A0000002B08D0FB681A68BB6803F01E031A436A
:100A1000FB681A6008E0FB681A68BB6803F01E03F5
:100A2000DB431A40FB681A6000BF1437BD4680BC28
:100A3000704700BF80B582B000AF78607B68174A0E
:100A400093420AD101214FF48050FFF7B1FC0021FD
:100A50004FF48050FFF7ACFC1CE07B68104A9342D7
:100A60000AD101214FF48040FFF784FC00214FF4AC
:100A70008040FFF77FFC0DE07B680A4A934209D172
:100A800001214FF40040FFF775FC00214FF40040B6
:100A9000FFF770FC00BF0837BD4680BD0030014045
:100AA00000380040003C004080B485B000AF786062
:100AB00039600023FB817B681B88FB81FB8903F481
:100AC0004153FB813B681A883B685B8813439AB2A9
:100AD0003B689B8813439AB23B68DB8813439AB206
:100AE0003B681B8913439AB23B685B8913439AB2F4
:100AF0003B689B8913439AB23B68DB8913439AB2E4
:100B0000FB891343FB817B68FA891A807B689B8B86
:100B10009BB223F400639AB27B689A833B681A8A7B
:100B20007B681A8200BF1437BD4680BC704700BF87
:100B300080B483B000AF78607B6800221A807B6845
:100B400000225A807B6800229A807B680022DA802B
:100B50007B6800221A817B6800225A817B68002210
:100B60009A817B680022DA817B6807221A8200BFA3
:100B70000C37BD4680BC704780B483B000AF78604E
:100B80000B46FB70FB78002B08D07B681B889BB260
:100B900043F040039AB27B681A8007E07B681B88A9
:100BA0009BB223F040039AB27B681A8000BF0C37D7
:100BB000BD4680BC704700BF80B483B000AF786092
:100BC0000B46FB70FB78002B08D07B681B889BB220
:100BD00043F400539AB27B681A8007E07B681B8855
:100BE0009BB223F400539AB27B681A8000BF0C3783
:100BF000BD4680BC704700BF80B483B000AF786052
:100C00000B467B8013467B707B78002B08D07B687B
:100C10009B889AB27B8813439AB27B689A8009E0DA
:100C20007B689B889AB27B88DB439BB213409AB265
:100C30007B689A8000BF0C37BD4680BC704700BF00
:100C400080B485B000AF78600023FB6005E0FB68EE
:100C50000133FB607B6801337B607B681B78002B72
:100C6000F5D1FB689BB218461437BD4680BC70476F
:100C700080B493B000AFF860084611461A460346A8
:100C80007B810B463B811346FB80FB68002B0FD01A
:100C9000FB68B3F900309AB27B8913449BB27B8125
:100CA000FB68B3F902309AB23B8913449BB23B8193
:100CB000B7F90630DB08FB63FB6BDA00B7F90630E7
:100CC0009A4202D2FB6B0133FB63B7F90A30DB08AF
:100CD0007B62B7F90A207B6ADB00D31A3B62FB68B0
:100CE000002B11D1B7F90A20B7F906301344B3F538
:100CF000487F05DB7B89C3F54873A7F840301CE0CB
:100D0000FB88A7F8403018E0B7F90A20B7F9063099
:100D10001A44B7F90A30F968B1F904100B449A4241
:100D200008DBFB68B3F904309AB27B89D31AA7F8C1
:100D3000403002E0FB88A7F840300023A7F8463097
:100D4000B7E0B7F84620B7F908301344B3F5167F7B
:100D500080F2B780B7F90A30DA08B7F90810B7F8A7
:100D600046300B441946662303FB01F31344FB6131
:100D7000564BBB61BA69FB691344BB613A6A1346BF
:100D80009B079B1A9B001A46BB6903F188735B01A2
:100D900013441C337B63BB6903F188735B011C3311
:100DA0003B63B7F84630FA6B02FB03F37A6D1344EA
:100DB000BB62FB88A7F844300023A7F84230002329
:100DC000A7F844306AE07B6BDBB223F01F03FB75AE
:100DD000B7F842305A1CA7F84220002B06D1BB6A54
:100DE0001B7887F83B30BB6A0133BB62B7F84230EF
:100DF00003F00703A7F8423097F93B30002B02DAE3
:100E00000123FB6201E00023FB62B7F85830032B9B
:100E10002AD801A252F823F0290E0008330E000848
:100E2000450E0008570E0008FB6ADAB27B6B1A7099
:100E30001AE07B6B1A78FB6ADBB25340DAB27B6B49
:100E40001A7011E07B6B1A78FB6ADBB21340DAB2DE
:100E50007B6B1A7008E07B6B1A78FB6ADBB213437A
:100E6000DAB27B6B1A7000BF7B6B043B7B637B6BDE
:100E700003F0E0033B61FA7D3B699A4204D03B6B8F
:100E800020337B637B6B3B6397F83B305B0087F8D9
:100E90003B30B7F844300133A7F84430B7F844206A
:100EA000B7F840309A428ED3B7F846300133A7F8EE
:100EB0004630B7F84620B7F950309A42FFF641AFB6
:100EC00000E000BF4C37BD4680BC704740000020AA
:100ED00080B58CB004AFBA601A460346FB810B465E
:100EE000BB811346FB80B868FFF7AAFE03467B83ED
:100EF000FB89BB830023FB832CE0BB685A1CBA60D0
:100F00001B787B767B7E1F2B21D97B7E9BB21A467A
:100F1000D20013449BB2A3F59073FB82FB8A124A62
:100F200013443B61B7F91C10B7F90C20FB880293FE
:100F30003B6901930923009306230020FFF798FEE5
:100F4000BB8B0633BB83BB8BB3F5487F07D2FB8BD0
:100F50000133FB83FA8B7B8B9A42CED300E000BF38
:100F60002037BD4680BD00BF541C000880B485B04A
:100F700000AF78600023FB730023BB730F237B73E8
:100F80007B68DB78002B38D0264BDB68DB4303F42F
:100F9000E0631B0AFB73FB7BC3F10403BB737A7B27
:100FA000FB7B42FA03F37B737B685B781A46BB7B5F
:100FB00002FA03F3FB737B689A787B7B1340DAB207
:100FC000FB7B1343FB73FB7B1B01FB73164A7B68A4
:100FD0001B781344FA7B83F80023134A7B681B7841
:100FE0005B09DBB218467B681B7803F01F03012105
:100FF00001FA03F342F820300FE00B497B681B78BD
:101000005B09DBB218467B681B7803F01F030122E3
:101010009A4000F1200341F8232000BF1437BD4659
:1010200080BC704700ED00E000E100E080B485B0D6
:1010300000AF786039600023FB817B681B88FB81EF
:101040007B68284A934213D07B68274A93420FD08B
:101050007B68B3F1804F0BD07B68244A934207D062
:101060007B68234A934203D07B68224A934208D18B
:10107000FB8923F07003FB813B685A88FB8913438B
:10108000FB817B681C4A93420CD07B681B4A9342CD
:1010900008D0FB8923F44073FB813B681A89FB89E4
:1010A0001343FB817B68FA891A803B685A687B6826
:1010B000DA623B681A887B681A857B68094A934222
:1010C00003D07B68084A934204D13B689B7A9AB26A
:1010D0007B681A867B6801229A8200BF1437BD465E
:1010E00080BC704700000140000401400004004043
:1010F00000080040000C00400010004000140040B8
:1011000080B483B000AF78600B46FB70FB78002B97
:1011100008D07B681B889BB243F080039AB27B683F
:101120001A8007E07B681B889BB223F080039AB289
:101130007B681A8000BF0C37BD4680BC704700BF7B
:1011400080B483B000AF78600B46FB70FB78002B57
:1011500008D07B681B889BB243F001039AB27B687E
:101160001A8007E07B681B889BB223F001039AB2C8
:101170007B681A8000BF0C37BD4680BC704700BF3B
:1011800080B485B000AF7860396000237B81002394
:10119000FB810023BB817B681B8C9BB223F0010386
:1011A0009AB27B681A847B681B8CFB817B689B8866
:1011B000BB817B681B8B7B817B8923F070037B81E8
:1011C0007B8923F003037B813B681A887B89134367
:1011D0007B81FB8923F00203FB813B689A89FB89B1
:1011E0001343FB813B685A88FB891343FB817B686F
:1011F0001E4A934203D07B681D4A934223D1FB8948
:1012000023F00803FB813B68DA89FB891343FB81E8
:10121000FB8923F00403FB813B689A88FB89134315
:10122000FB81BB8923F48073BB81BB8923F40073EA
:10123000BB813B681A8ABB891343BB813B685A8ACE
:10124000BB891343BB817B68BA899A807B687A89A2
:101250001A833B689A687B685A637B68FA891A84A8
:1012600000BF1437BD4680BC704700BF000001407E
:101270000004014080B485B000AF7860396000237D
:101280007B810023FB810023BB817B681B8C9BB28D
:1012900023F010039AB27B681A847B681B8CFB8155
:1012A0007B689B88BB817B681B8B7B817B8923F45C
:1012B000E0437B817B8923F440737B813B681B88FF
:1012C0001B029AB27B8913437B81FB8923F02003A5
:1012D000FB813B689B891B019AB2FB891343FB810D
:1012E0003B685B881B019AB2FB891343FB817B68D7
:1012F000224A934203D07B68214A93422BD1FB8937
:1013000023F08003FB813B68DB891B019AB2FB89D8
:101310001343FB81FB8923F04003FB813B689B88DF
:101320001B019AB2FB891343FB81BB8923F48063C1
:10133000BB81BB8923F40063BB813B681B8A9B0094
:101340009AB2BB891343BB813B685B8A9B009AB20C
:10135000BB891343BB817B68BA899A807B687A8991
:101360001A833B689A687B689A637B68FA891A8457
:1013700000BF1437BD4680BC704700BF000001406D
:101380000004014080B485B000AF7860396000236C
:101390007B810023FB810023BB817B681B8C9BB27C
:1013A00023F480739AB27B681A847B681B8CFB8160
:1013B0007B689B88BB817B689B8B7B817B8923F0CF
:1013C00070037B817B8923F003037B813B681A8850
:1013D0007B8913437B81FB8923F40073FB813B688A
:1013E0009B891B029AB2FB891343FB813B685B8894
:1013F0001B029AB2FB891343FB817B68224A93420A
:1014000003D07B68214A93422BD1FB8923F40063EC
:10141000FB813B68DB891B029AB2FB891343FB818A
:10142000FB8923F48063FB813B689B881B029AB293
:10143000FB891343FB81BB8923F48053BB81BB89A8
:1014400023F40053BB813B681B8A1B019AB2BB8902
:101450001343BB813B685B8A1B019AB2BB89134370
:10146000BB817B68BA899A807B687A899A833B685A
:101470009A687B68DA637B68FA891A8400BF14373C
:10148000BD4680BC704700BF000001400004014021
:1014900080B483B000AF78607B6800221A807B68DC
:1014A00000225A807B6800229A807B6800229A6022
:1014B0007B6800229A817B680022DA817B680022A7
:1014C0001A827B6800225A8200BF0C37BD4680BC5E
:1014D000704700BF80B485B000AF78600B467B805A
:1014E0000023FB817B681B8BFB81FB8923F00803B6
:1014F000FB81FA897B881343FB817B68FA891A8315
:1015000000BF1437BD4680BC704700BF80B485B0B3
:1015100000AF78600B467B800023FB817B681B8BD0
:10152000FB81FB8923F40063FB817B881B029AB259
:10153000FB891343FB817B68FA891A8300BF143748
:10154000BD4680BC704700BF80B483B000AF7860F8
:101550000B46FB70FB78002B0CD07B68B3F8443053
:101560009BB26FEA43436FEA53439AB27B68A3F896
:10157000442009E07B68B3F844309BB2C3F30E0308
:101580009AB27B68A3F8442000BF0C37BD4680BCEC
:10159000704700BF80B483B000AF78600B467B809B
:1015A00013467B707B78002B08D07B689B899AB2AE
:1015B0007B8813439AB27B689A8109E07B689B8998
:1015C0009AB27B88DB439BB213409AB27B689A81C4
:1015D00000BF0C37BD4680BC704700BF80B485B0EB
:1015E00000AF78600B467B800023FB817B681B8902
:1015F000FB81FB8923F07003FB81FA897B8813430D
:10160000FB817B68FA891A8100BF1437BD4680BC14
:10161000704700BF80B483B000AF78600B467B801A
:101620007B689B889BB223F070039AB27B689A8098
:101630007B689B889AB27B8813439AB27B689A80B6
:1016400000BF0C37BD4680BC704700BF80B483B07C
:1016500000AF78600B467B807B681B899BB223F0D0
:1016600007039AB27B681A817B681B899AB27B88D0
:1016700013439AB27B681A8100BF0C37BD4680BC09
:10168000704700BF80B483B000AF78600B467B80AA
:101690007B681B899BB223F080039AB27B681A8116
:1016A0007B681B899AB27B8813439AB27B681A8144
:1016B00000BF0C37BD4680BC704700BF80B58EB000
:1016C00000AF07F1140300221A605A609A603B468B
:1016D00000221A605A609A60DA601A6100237B6304
:1016E00000237B8600233B860023FB854FF4817318
:1016F0007B62022387F82830022387F829300023F1
:1017000087F82A30012387F82B3007F12403194684
:101710007F48FEF76BFE012208217D48FEF702FF9D
:10172000012201217A48FEF7FDFE7A4B1B687A4AB6
:10173000A2FB0323DB0B7B63764B1B68774AA2FB80
:1017400003235B0C7B86734B1B685B09744AA2FB0B
:101750000323DB093B8607F1140319467148FFF7A1
:1017600065FC0023BB820023FB827B6BBB610023F3
:10177000BB830023BB7707F1140319466948FFF7C1
:1017800055FC3B461846FFF783FE70233B807B8E5B
:10179000BB6001237B800123BB800223BB8102232A
:1017A000FB8100233B8200237B823B4619465D4838
:1017B000FFF7E6FC70233B803B8EBB603B4619463F
:1017C0005848FFF757FD08215648FFF783FE0821C8
:1017D0005448FFF79BFE01215248FFF791FC01217D
:1017E0005048FFF7B1FE80214E48FFF74BFF202104
:1017F0004C48FFF70FFF05214FF08040FFF726FF11
:1018000000214FF08040FFF7E9FE40F271237B6337
:1018100002233B861823FB8507F1140319464FF07A
:101820008040FFF703FC0023BB820023FB827B6B1D
:10183000BB610023BB830023BB7707F11403194668
:101840004FF08040FFF7F2FB3B461846FFF720FEC3
:1018500070233B8001237B800423BB803B8EBB60D5
:101860000223BB810823FB8100233B8200237B8270
:101870003B4619464FF08040FFF7FCFC20233B809D
:10188000FB8DBB603B4619464FF08040FFF77AFD69
:1018900001214FF08040FFF757FE1C2387F82030CE
:1018A000012387F82130002387F82230012387F8AD
:1018B000233007F120031846FFF758FB01220821C7
:1018C0004FF08040FFF766FE1B2387F8203001238E
:1018D00087F82130002387F82230012387F823304E
:1018E00007F120031846FFF741FB012204210D48B0
:1018F000FFF750FE01214FF08040FFF721FC01214E
:101900000848FFF71DFC00BF3837BD4680BD00BF4B
:101910000000024000000020E9699CEE83DE1B43CA
:10192000DF4ED3050000014080B598B000AF202302
:101930007B6002233B7202237B720023BB723B1D40
:1019400019465148FEF752FD052205214E48FEF783
:10195000E9FD4E48FFF76EF800214C48FFF70CF9FF
:101960004B48FEF7CFFE07F10C031846FEF7F2FFD7
:10197000484B3B61484B7B614023BB616623FB6165
:1019800000233B624FF480637B620023BB62002331
:10199000FB6200233B634FF400337B634FF0C06373
:1019A000FB600023BB6300233B6400237B6407F1DF
:1019B0000C0319463648FEF777FF07F1480318462F
:1019C000FFF7B6F84FF44043A7F848304FF482735E
:1019D000A7F84A300023A7F84C300023A7F84E3070
:1019E0000123A7F850304FF40073A7F852300023BA
:1019F000A7F854300023A7F856300723A7F858302B
:101A000007F1480319462148FFF74EF800211F4807
:101A1000FFF7D2F83B2387F85C30002387F85D306E
:101A2000012387F85E30012387F85F3007F15C03FC
:101A30001846FFF79BFA164A154B1B6823F0010363
:101A40001360134B66225A60114B134ADA6001226D
:101A500002210E48FFF7D0F801210C48FFF78CF85F
:101A6000012210210A48FEF7ABFF094A084B1B6808
:101A700043F0010313604FF480510848FEF744FD22
:101A800000BF6037BD4680BD000402400030014009
:101A9000586402400C30014040000020000C02401D
:101AA00080B400AF0A4B1B68002B05D0094A094BD4
:101AB0001B6843F001031360074A074B1B8A9BB264
:101AC00023F004039BB2138200BFBD4680BC704765
:101AD00024000020586402400000014080B400AFA0
:101AE000084B01221A604FF080424FF080431B8A5E
:101AF0009BB223F008039BB2138200BFBD4680BC9B
:101B0000704700BF2400002080B400AF1E4B4FF090
:101B100000629A601D4A1D4B1B6823F0010313608D
:101B20001A4B66225A601A4B1B680133184A13601D
:101B3000174B1B68012B22D1154B00221A60154B45
:101B40001B889BB201339AB2124B1A80114B1B882F
:101B50009BB2B3F5167F0DD10F4B00221A60002106
:101B60000C4B0A461A800A46094B1A60074B0B4A6F
:101B7000DA6004E0054A054BDB686633D36000BFDA
:101B8000BD4680BC704700BF0064024058640240FC
:101B90002800002020000020240000204000002019
:101BA00080B483B000AF0023BB8015E00023FB802E
:101BB0000CE0BA88FB880D49662000FB02F20A445B
:101BC000134400221A70FB880133FB80FB88652BCD
:101BD000EFD9BB880133BB80BB88B3F5167FE5D353
:101BE00000BF0C37BD4680BC704700BF40000020DE
:101BF00080B582B000AF4FF470433B6001233B716E
:101C000003237B710023BB710023FB713B46194604
:101C10000848FEF7EBFB4FF400410648FEF774FC62
:101C2000FFF782FEFFF74AFDFFF7BAFF00BF083754
:101C3000BD4680BD000C02404920414D204B353649
:101C4000314C4133205355434B204D592044494397
:101C50004B000000000000000000000000002020F9
:101C60002020200020000050500000000000000054
:101C70000050F850F8500000002078A07028F020A4
:101C80000000C8D02020205898000020502040A8F4
:101C900098700000202020000000000000204080FC
:101CA000808040200000201008080810200000005C
:101CB000A870F870A8000000002020F82020000084
:101CC0000000000000202040000000000070000024
:101CD0000000000000000000002000001010202084
:101CE0002040400000708888A8888870000060202C
:101CF00020202020700000708808708080F800008C
:101D000070880830088870000010305090F810106B
:101D10000000F08080F00888700000304080B0C87B
:101D200088700000F80810204080800000708888CB
:101D300070888870000070888878088870000000BB
:101D400030300030300000000030300030306000B3
:101D5000001020408040201000000000F800F80033
:101D6000000000402010081020400000708808107B
:101D700020002000007088B8A8B880780000708823
:101D80008888F888880000F08888F08888F000004B
:101D9000708880808088700000F08888888888F04B
:101DA0000000F88080F08080F80000F88080F080EB
:101DB00080800000708880B88888700000888888DB
:101DC000F8888888000070202020202070000008FB
:101DD00008080888887000008890A0C0A09088003B
:101DE00000808080808080F8000088D8A88888885B
:101DF00088000088C8A8988888880000708888882B
:101E00008888700000F08888F080808000007088EA
:101E10008888A890680000F08888F0A0908800006A
:101E2000708880700888700000F820202020202012
:101E3000000088888888888870000088888888885A
:101E40005020000088888888A8A8700000888850E2
:101E5000205088880000888888502020200000F8C2
:101E60000810204080F80000704040404040700062
:101E700000404020202010100000701010101010A2
:101E800070000020508000000000000000000000F2
:101E90000000F800002020100000000000000000FA
:101EA00070087898680000008080F08888F0000052
:101EB00000007880808078000000080878888878A2
:101EC000000000007088F0807000003040406040EA
:101ED0004040000000007888780870000000000092
:101EE00000000000000000000000000000000000F2
:101EF00000000000000000000000000000000000E2
:101F000000000000000000000000000000000000D1
:101F100000000000000000000000000000000000C1
:101F200000000000000000000000000000000000B1
:101F300000000000000000000000000000000000A1
:101F40000000000000000000000000000000000091
:101F50000000000000000000000000000000000081
:101F60000000000000000000000000000000000071
:101F70000000000000000000000000000000000061
:101F80000000000000000000000000000000000051
:101F90000000000000000000000000000000000041
:101FA0000000000000000000000000000000000031
:041FB000000000002D
:101FB4000044950800000000000000000102030432
:041FC40006070809FB
:0400000508000000EF
:00000001FF
